:020000040040BA
:10000000902A4020B5104000B1104000B1104000CF
:10001000B1104000B1104000B110400000000000DD
:10002000000000000000000000000000B1104000CF
:10003000B110400000000000B1104000B1104000BD
:10004000B1104000B1104000B1104000B1104000AC
:10005000B1104000B1104000B1104000B11040009C
:10006000B1104000000000008D0D4000A10D4000C7
:10007000B50D4000B1104000B1104000B11040007B
:10008000C90D4000DD0D4000B1104000B11040002E
:10009000B1104000B1104000B1104000B11040005C
:1000A000B1104000B1104000B1104000B11040004C
:1000B000B1104000A90C4000B1104000B110400048
:1000C000B1104000B1104000B1104000B11040002C
:1000D00000000000B110400000000000B11040001E
:1000E000BD0C4000B1104000B1104000B110400004
:1000F000B1104000B1104000B1104000B1104000FC
:10010000B1104000B1104000B1104000B1104000EB
:10011000B1104000000000000000000000000000DE
:10012000B1104000B1104000B1104000B1104000CB
:10013000B110400000000000B1104000B1104000BC
:1001400010B5054C237833B9044B13B10448AFF311
:1001500000800123237010BDB4084020000000007F
:10016000A87D4000084B10B51BB108490848AFF303
:1001700000800848036803B910BD074B002BFBD073
:10018000BDE81040184700BF00000000B80840203C
:10019000A87D4000A87D400000000000044B0B2219
:1001A0005A669A6E034B1A600122034B1A7070470D
:1001B00000C00340D4084020D0084020F0B583B0F0
:1001C00005460C4600230193294B984207D11F4650
:1001D000284E21463846B0470028FAD115E0264B74
:1001E000984207D11F46234E21463846B047002883
:1001F000FAD115E0214B984207D11F461D4E2146EA
:100200003846B0470028FAD117E01D4B9D4207D170
:100210001F46184E21463846B0470028FAD119E04B
:10022000184B9D4209D11E46174D01A93046A847DB
:100230000028FAD1019B237018E0144B9D4209D18C
:100240001E46114D01A93046A8470028FAD1019B4E
:1002500023700BE00E4B9D4208D11E460A4D01A9AA
:100260003046A8470028FAD1019B237003B0F0BDA7
:1002700000080E40810F4000000A0E40001A0E4098
:10028000001C0E40004002409910400000800240D7
:1002900000C0024070B50C462A4B984208D11E4659
:1002A000294D21463046A8470028FAD1012070BDCB
:1002B000264B984208D11E46234D21463046A8477A
:1002C0000028FAD1012070BD214B984208D11E466A
:1002D0001D4D21463046A8470028FAD1012070BDA7
:1002E0001C4B984208D11E46174D21463046A84760
:1002F0000028FAD1012070BD174B984208D11E4644
:10030000164D21463046A8470028FAD1012070BD7D
:10031000134B984208D11E46104D21463046A8473F
:100320000028FAD1012070BD0E4B984208D11E461C
:100330000A4D21463046A8470028FAD1012070BD59
:10034000002070BD00080E406D0F4000000A0E40F6
:10035000001A0E40001C0E40004002408110400078
:100360000080024000C0024030B583B00220134B31
:100370009847134C00212046124B98473023009396
:100380001D230B2240F2E17120460F4DA8470023A8
:100390002F22112120460D4DA8470D4B0422C3F8F2
:1003A0008020C3F88021002183F802131A60022103
:1003B0002046084B984703B030BD00BF190F4000DE
:1003C00060180E40FD05400005074000750640001E
:1003D00000E100E0150640002DE9F04F93B05B4BC3
:1003E00098470A205A4CA0470B20A0470C20A04752
:1003F0001020A0471120A047564B9847564B9847CE
:100400000E20A047554E564B1E60564A564B1A605A
:10041000564A574B1A604FF4E1330393C0230493B9
:100420004FF4006705970025069507950E20A04715
:10043000504A03A93046504B984730464F4B984797
:1004400030464F4B98474F4E3368294698684E4C7C
:10045000A047336829465868A0474C484C4B9847FA
:100460004C4C20464C4B98470CA84C4B98470CA939
:1004700020464B4B9847636823F08F03636001234A
:10048000484A0B212046484EB0470BA8474B984797
:100490008DF82D500BAA0B212046454B98470B2376
:1004A00063664FF40073E36609A8424B984709A9B5
:1004B0002046414B98476761022323603F4C404DE3
:1004C000DFF824813F4FDFF82491237813F0FF0FEA
:1004D000FBD000232370DFF818A13B4E2B46524679
:1004E00031464046DFF80CB1D847DAF800303268C0
:1004F000364E2968009136493046DFF8FCA0D047D7
:100500003046344EB047344B1A6840F6E44303FBA0
:1005100002F2324BA3FB0213D21A03EB5203DB0AA3
:10052000A3F53473642101FB03F387FB0321194412
:10053000DB17C3EBE1111B312948B0470222154BF1
:100540001A604846274B9847BFE700BFBD074000E9
:10055000190F4000B90840006903400000800240C4
:10056000040A402095024000000A4020BD014000DE
:10057000FC09402080D1F0081D104000711040009F
:100580007910400040044020091540004C7B400099
:10059000F914400000C00340D10C4000010B4000A2
:1005A000510B40009D014000510C4000310B4000B8
:1005B000BD0A40003D0B4000ED0A4000D00840203D
:1005C000F0094020059CA28C880940208C0940201D
:1005D000AC7B4000CD134000D40840200101100046
:1005E000C47B40000100402060180E406BAF030345
:1005F00084094020190640006916400021B1436873
:1006000043F0010343607047436823F001034360F4
:10061000704700BF0162704730B485688468A542A6
:1006200003D084688568A542FBD161B1C4F3015051
:1006300000EB8005C4F3034000EB450014F4800F89
:1006400018BF0C30086042B1C4F3023101EB8101E4
:10065000C4F3032000EB4101116043B1C4F3021263
:1006600002EB820204F00F0404EB42041C6030BC75
:10067000704700BFF0B4446814F0010F05D00C2996
:1006800003D90C394FF4800600E000261C4CA4FB73
:100690000357FF0807EB8705A3EB450343EA07135E
:1006A000A4FB0275ED0843EA053305EB8505A2EBD3
:1006B000450243EA02223243A4FB0143DB0842EA3B
:1006C000035203EB8303A1EB430342EA0341836933
:1006D00013F0040FFBD0036843F001030360836948
:1006E00013F0010FFBD00123C3618160036823F085
:1006F00001030360C06A00F00100F0BC704700BF56
:10070000CDCCCCCCF0B52A4EA6FB034E4FEADE0E84
:10071000059C640544EA0E770EEB8E0EA3EB4E05A6
:1007200047EA0565A6FB0243DB0845EA035503EBF0
:100730008303A2EB430345EA03441E4BA3FB0123BF
:100740009B0944EA03121C4CA4FB01346309A6FB79
:100750000354E40804EB8404A3EB44031343A6FB13
:100760000124E40804EB8402A1EB420243EA0223E1
:10077000A6FB0426F60806EB8606A4EB460643EA2B
:100780000632836913F0040FFBD0036843F00203C1
:100790000360836913F0010FFBD00123C361C260C2
:1007A000036823F002030360C06A00F00200F0BD9A
:1007B000CDCCCCCCD34D62101F85EB5110B5104879
:1007C000104B98473E2100200F4B98470F4CA047F5
:1007D0000028FCD00E4B98470E4A0F4B9A620F4CE4
:1007E000A0470028FCD002200D4B984700200D4B5D
:1007F00098470D4B98470248024B984710BD00BFE1
:1008000000A3E111A1124000950E4000E90E400046
:10081000F90E4000013F182000060E40090F40006D
:10082000F10D40002D0E40009111400090B92DE9CE
:10083000F0410C469046002A0FDD8F18084E094DF6
:10084000306821462B6898470134A742F8D14046CA
:10085000BDE8F0814FF0FF3070470020BDE8F08127
:10086000040A4020FC0940200138022815D82DE94F
:10087000F0410E4614469AB10D46DFF838800C4F11
:10088000D8F8000015F8011B3B68984700280ADBE0
:10089000A81B013CF4D1BDE8F0814FF0FF30704758
:1008A0000020BDE8F0814FF0FF30BDE8F08100BFCF
:1008B000000A4020040A4020F8B54FF40042574B8C
:1008C0005A60BFF34F8FBFF36F8F554B0022C3F8B1
:1008D00050225A6942F400325A61BFF34F8FBFF37E
:1008E0006F8FD3F88060C6F34E3506F007070437E4
:1008F000C6F3C906B6FA86F000F01F00BFF34F8FAB
:100900001C46334605FA07F103FA00F20A43C4F81D
:100910006022013BB3F1FF3FF6D1013DB5F1FF3F4E
:10092000EFD1BFF34F8F3E4B5A6942F480325A6188
:10093000BFF34F8FBFF36F8F3A4A3B495160A1F528
:1009400080715160BFF34F8FBFF36F8FD3F8902248
:1009500022F00102C3F89022D3F8942222F001027F
:10096000C3F89422BFF34F8FBFF36F8F0A202F4C31
:10097000A0470B20A0470C20A0471020A047112023
:10098000A0472B4B4FF480721A61C3F8A0201A6362
:10099000A3F580634FF400625A61C3F8A0205A6641
:1009A000C3F890205A651A62C3F88420196F21F4A5
:1009B00000611967596F21F400615967C3F8C020BD
:1009C000C3F8D420C3F8B0204FF400121A66C3F85D
:1009D00090205A655A62C3F88020196F21F40011E3
:1009E0001967596F21F4001159675A60114AD2F8FA
:1009F000143143F01003C2F814310F4B10221A6661
:100A0000C3F890205A655A62C3F88020196F1143C9
:100A10001967596F114359675A60F8BD50180E4055
:100A200000ED00E0000C0E400C08005A190F4000C9
:100A300000120E400080084000100E4070B582B0D9
:100A4000026BC36A1340019300241A4E1A4DA84248
:100A500014BF0020012005010B2C0AD8019A0123A4
:100A6000A340134220D02B1956F82330E3B1984706
:100A70001AE00E2C0CD8019A04F10C0101238B40D2
:100A8000134211D02B1956F823306BB198470BE065
:100A9000019A04F10F0101238B40134204D02B195A
:100AA00056F8233003B198470134102CD4D102B04A
:100AB00070BD00BF080A40200040064030B4046EFC
:100AC00001238B4024EA03041578002D08BF00237E
:100AD00023430366446D4D000321A94024EA01032A
:100AE0005178A9401943416530BC70474A780B786A
:100AF000134303678A884B8843EA0243436770477E
:100B000000220260084B4360084B83604FF480234F
:100B1000C36002230374012343748374C274037596
:100B200043758375704700BF00A3E111808D5B00A2
:100B30000023037001234370704700BF002303703C
:100B400020234370FF23438040F6FF738380704768
:100B5000036B13F0807350D110B401220260CA7C81
:100B6000002A18BF4FF000434A688C68B2FBF4F2C9
:100B7000013A120292B2CC6844F4000422430C7C85
:100B8000240604F0706422434C7C240704F0405493
:100B90002243134343600B7D002B14BF4FF0807240
:100BA00000220B681A434B7D002B14BF4FF00073DB
:100BB0000023134383608B7D1B0203F4407343F0D7
:100BC0000C03C0F89430104B984209D10F4B03F13D
:100BD0004001002243F8042F8B42FBD100200FE09C
:100BE0000B4B98420BD10B4B03F14001002243F811
:100BF000042F8B42FBD1002002E019207047002017
:100C00005DF8044B704700BF00C00340040A402059
:100C100000400640440A40200C4B994201D14362F7
:100C200070470B2909D803D14FF400634362704722
:100C3000012303FA01F1416270470E2994BF0C3180
:100C40000F31012303FA01F141627047FF0F0047A2
:100C500038B5114CA0420CBF102400240C440F4D99
:100C600045F824200AD00E4A4FF00054C2F88041C3
:100C70005B01DBB282F81D33146009E0084A4FF4CF
:100C80008074C2F884415B01DBB282F8283354607F
:100C9000044B984738BD00BF00400640080A40207A
:100CA00000E100E0190C400008B50248024B9847EB
:100CB00008BD00BF00C003403D0A400008B502481F
:100CC000024B984708BD00BF004006403D0A400067
:100CD00000B583B0134B98420CBF28201D20124B47
:100CE0009847124B9B78FF2B00D1FEE7EFF3108360
:100CF000B3FA83F35B09019372B6BFF35F8F0022EF
:100D00000B4B1A700199094A93780133937029B1FA
:100D10000122074B1A70BFF35F8F62B603B05DF814
:100D200004FB00BF00400640190F4000F4094020BA
:100D30000C004020C06C7047806C70472DE9F0417A
:100D4000044688460E4B9847054620460D4B98476B
:100D5000054013D00C4C04F160062368434508D1CC
:100D60006168294205D0E36840469847636825EAF0
:100D70000305B44202D01034002DEED1BDE8F0815D
:100D8000350D4000390D4000D808402008B50A2133
:100D90000148024B984708BD000E0E403D0D400033
:100DA00008B50B210148024B984708BD00100E40C2
:100DB0003D0D400008B50C210148024B984708BD85
:100DC00000120E403D0D400008B510210148024BB5
:100DD000984708BD00140E403D0D400008B5112194
:100DE0000148024B984708BD00160E403D0D4000DB
:100DF000032807D0042808D002280CBF4FF48072C3
:100E0000002204E04FF4407201E04FF40072064902
:100E10000B6B23F4407313430B630A46936E13F07A
:100E2000080FFBD0704700BF00060E40184A136B36
:100E300023F0700318431063936E13F0080F03D070
:100E400009E0013B03D11EE04FF4805310498A6E44
:100E500012F0080FF5D00E4A136B23F0030343F092
:100E600002031363906E10F0080004D00020704756
:100E7000013B03D109E04FF4805305498A6E12F01B
:100E8000080FF5D07047012070470120704700BF60
:100E900000060E4038B10E490B6A0E4A1A400E4B3E
:100EA00013430B6270470A48036A090289B20B4A6E
:100EB0001A400B4B1343194301620246936E13F021
:100EC000010FFBD0024A116A064B0B4313627047B5
:100ED00000060E40FCFFC8FE02003701FCFFC8FF01
:100EE0000100370000003701024B986E00F480309B
:100EF000704700BF00060E404FF00052014B9A624F
:100F0000704700BF00060E40024B986E00F00200D2
:100F1000704700BF00060E403F281ED81F280CD87F
:100F2000114B9A6901238340934318D0012303FA9C
:100F300000F00D4B18610020704720380A4BD3F8A1
:100F400008210123834093430BD0012303FA00F0CF
:100F5000054BC3F8000100207047012070470020B6
:100F600070470020704700BF00060E40436913F031
:100F7000020F02D0C161002070470120704700BFFE
:100F8000436913F0010F03D083690B700020704791
:100F90000120704710B40C0194420FD91AE0416847
:100FA00041F400214160120402F4E0221A4302627B
:100FB00000201CE001201AE0012018E0630803EB88
:100FC000C202B2FBF4F2D3085C1E4FF6FE718C42F3
:100FD000E9D9EFE7C9004B0803EBC202B2FBF1F21B
:100FE000D3085C1E4FF6FE718C42E5D8D7E75DF85A
:100FF000044B7047084BC0F8E43000234360436261
:10100000836288230360242303604FF480730360AA
:101010004FF40023036070470041535570B50546F7
:101020000C4616460F4B984700220F4B1A609CB196
:101030003246216828460D4B9847024670B96168D0
:10104000A368194323691943E3680B4306490B60FE
:1010500069680B436B6002E0012200E00122104648
:1010600070BD00BFF50F400048094020950F4000BB
:1010700040230360704700BF10230360704700BF28
:10108000436913F0020F04D0C1F30801C1610020CD
:1010900070470120704700BF436913F0010F05D06E
:1010A0008369C3F308030B60002070470120704779
:1010B000FEE700BF00B583B0274B284A9A4203D011
:1010C000274B254A9A4204D3264B274A9A420FD3EC
:1010D0001AE02149254B5B1A23F0030304331F4A0E
:1010E000134452F8040B41F8040B9A42F9D1EBE790
:1010F0001F4B204AD21A22F003021A44043B00215B
:1011000043F8041B9342FBD11B4A1C4B23F07F0383
:101110009360EFF31083B3FA83F35B09019372B624
:10112000BFF35F8F0022164B1A700199154A13689E
:1011300043F470031360BFF34F8FBFF36F8F29B178
:1011400001220F4B1A70BFF35F8F62B60E4B9847A8
:101150000E4B9847FEE700BF00004020A87D4000EE
:10116000B40840208C0A4020B4084020B308402036
:10117000B80840208F0A402000ED00E00000400049
:101180000C00402088ED00E07D134000D9034000B2
:101190003C4B1B6B03F00303012B0FD013B1022B4D
:1011A00029D057E0384B5B6913F0800F14BF4FF420
:1011B00000424FF4FA42354B1A604BE0314B1B6A48
:1011C00013F0807F03D0324A304B1A6042E0314A3C
:1011D0002E4B1A602B4B1B6A03F07003102B02D0AE
:1011E000202B04D036E02C4A284B1A6032E0284AE3
:1011F000264B1A602EE0234B1B6A13F0807F03D02E
:10120000234A224B1A6012E0224A204B1A601D4BDF
:101210001B6A03F07003102B02D0202B04D006E0D1
:101220001D4A1A4B1A6002E0194A184B1A60154BF6
:101230001B6B03F00303022B0CD1124A936A926AD0
:101240001248C3F30A41036801FB0333D2B2B3FB74
:10125000F2F303600B4B1B6B03F07003702B07D191
:101260000A4A13680D49A1FB03135B08136070471A
:10127000044B1B6B0549C3F302120B68D3400B6090
:10128000704700BF00060E4010180E4010004020AE
:10129000001BB70000093D0000127A00ABAAAAAA01
:1012A000164B984204D84FF08062154B1A60704775
:1012B000144B984203D8144A114B1A607047134BD1
:1012C000984203D8124A0E4B1A607047114B98424D
:1012D00003D8114A0A4B1A607047104B984204D841
:1012E0004FF00422064B1A6070470D4B984294BF92
:1012F0000C4A0D4A024B1A60704700BFBFF35E01F3
:10130000000C0E407FE7BD02000100043FDB1C041F
:1013100000020004FFCE7B0500030004BFC2DA0612
:101320007FB639080005000400060004094B1B685D
:1013300013B9094A074B1A60064B1B681A1807496C
:10134000914204DB1046034A1060184670474FF084
:10135000FF3070474C094020902C4020FCFF452076
:101360004FF0FF30704700BF4FF400534B60002038
:10137000704700BF012070470020704770B50F4EC6
:101380000F4D761BB61018BF002405D0013455F858
:10139000043B9847A642F9D10A4E0B4D761B06F046
:1013A000EDFCB61018BF002406D0013455F8043BFC
:1013B0009847A642F9D170BD70BD00BF887D40003E
:1013C000887D4000907D4000887D40000FB400B5CE
:1013D000074983B004AB086853F8042B8168019374
:1013E00001F066FD03B05DF804EB04B0704700BF88
:1013F0004004402070B4840746D0541E002A41D0D7
:10140000CDB2034602E0621EE4B3144603F8015B6A
:101410009A07F8D1032C2ED9CDB245EA05250F2C19
:1014200045EA054519D903F110022646103E0F2E54
:1014300042F8105C42F80C5C42F8085C42F8045C2C
:1014400002F11002F2D8A4F1100222F00F0204F00F
:101450000F041032032C13440DD91E462246043AC1
:10146000032A46F8045BFAD8221F22F00302043252
:10147000134404F003042CB1C9B21C4403F8011B4B
:10148000A342FBD170BC704714460346C2E700BFBD
:10149000F0B5054689B008460C4600F011F9AB6B73
:1014A000144F04940126441C04A9022203940590BD
:1014B000AC680697079601910292B3B1B4F90C306B
:1014C0009A0406D4626E43F4005322F40052A381BE
:1014D00062662146284601AA03F03CFF002814BF9B
:1014E0004FF0FF300A2009B0F0BD284603F080FD20
:1014F000E4E700BFDC7B4000024B01461868FFF7C1
:10150000C7BF00BF4004402000290CBF02220022B8
:101510004FF4806300F000B82DE9F043514C25688A
:1015200083B004460F4690461E4615B1AB6B002BA8
:1015300079D0B8F1020F04D0B8F1010F7FD8002E96
:101540007DDB2146284603F0BFFC216B41B104F14D
:101550004003994202D0284603F014FE002323637F
:10156000B4F90C300022A26162601A0654D423F44C
:101570004A6323F00303B8F1020FA38139D001AB12
:101580006A462146284604F09FF8A3891843A081A3
:1015900026B327B3AB6B002B4DD0009BB4F90C00E6
:1015A00027609E421CBF40F40060A081B8F1010F8B
:1015B00008BF40F0010083B208BFA08103F008001B
:1015C00080B22761666118B313F001002FD00020AC
:1015D0007642A661A06003B0BDE8F083009E30466D
:1015E00004F0E6F8074668B3A38943F08003A381BB
:1015F000D0E7002004F1430243F00203002501215B
:10160000A381A56022602261616103B0BDE8F0831F
:10161000A06003B0BDE8F0832169284603F0B2FD65
:10162000B4F90C30A3E7284603F0E2FC81E7A6609A
:1016300003B0BDE8F083284603F0DAFCADE74FF0D5
:10164000FF30E2E7DDF80090B14506D0484604F0EF
:10165000AFF8074608B14E46C6E7B4F90C304FF074
:10166000FF30C7E7400440200EB4F0B59CB021AB7A
:101670000F4953F8042B019305466FF000440868A6
:1016800002954FF402774FF6FF7602A90695ADF862
:10169000147004940794ADF8166000F07FF8029B74
:1016A00000221A701CB0BDE8F04003B0704700BFC4
:1016B0004004402000000000000000000000000086
:1016C00090F800F06DE9024520F007016FF0000C82
:1016D00010F0070491F820F040F049804FF000042A
:1016E0006FF00700D1E9002391F840F000F1080005
:1016F00082FA4CF2A4FA8CF283FA4CF3A2FA8CF33D
:101700004BBBD1E9022382FA4CF200F10800A4FAA3
:101710008CF283FA4CF3A2FA8CF3E3B9D1E90423F7
:1017200082FA4CF200F10800A4FA8CF283FA4CF32E
:10173000A2FA8CF37BB9D1E9062301F1200182FAE8
:101740004CF200F10800A4FA8CF283FA4CF3A2FAEE
:101750008CF3002BC6D0002A04BF04301A4612BAFC
:10176000B2FA82F2FDE8024500EBD2007047D1E9FF
:10177000002304F00305C4F100004FEAC50514F08E
:10178000040F91F840F00CFA05F562EA05021CBF5F
:1017900063EA050362464FF00004A9E72DE9F04F24
:1017A000C1B00C46099115460E930A9003F088FFCC
:1017B000036817931846FFF783FFA38916901E0648
:1017C00003D52369002B01F0198100231A461293D7
:1017D0002593249319930B93DFF864A4149230ABF0
:1017E000239399461592A84698F800304446EBB1E9
:1017F000252B02D11AE0252B03D014F8013F002B32
:10180000F9D1C8EB04058DB1249B259AC9F8008055
:1018100001332A44072BC9F804502592249300F37E
:10182000A68009F108090B9B2B440B932378002B0E
:1018300000F0A68000231A468DF86F3019460C93ED
:1018400007934FF0FF3B637804F101085D4608F110
:101850000108A3F12000582800F22584DFE810F0E9
:101860008803230423049003230423042304230470
:10187000230423049703A50323045D00E20023044B
:10188000FE00050105010501050105010501050130
:101890000501050123042304230423042304230452
:1018A0002304230423042304150181022304810259
:1018B0002304230423042304C60223042304CD02A7
:1018C00023042304230423042304F702230423040E
:1018D00025032304230423042304230423042304CF
:1018E0002304230423046603790381028102810215
:1018F0008103790323042304D1032304DB03A3001E
:101900006400EE032304F5032304AA032304230441
:10191000BC030C980E9340420C90079B43F00403C9
:10192000079398F8003092E70E98AB4600210468C0
:101930008DF86F10071D0798302378228B458DF89E
:1019400070304FF000058DF8712040F00203C0F2B6
:10195000C78320F0800343F00203079354EA050392
:101960000E9700F093830F461192B348CEE223AA5C
:1019700009990A9805F082F848B90DF1C00952E7B3
:10198000259B23B10A98099923AA05F077F8099BAA
:101990009B8913F0400F0B9B18BF4FF0FF33184685
:1019A00041B0BDE8F08F1193AB46002A41F023828D
:1019B000079A12F0200300F02E820E9F073727F0BF
:1019C0000703002703F10801BB450E91D3E9004549
:1019D0008DF86F70C0F2528722F08003079354EAAB
:1019E000050300F0758330AEE20842EA4572E9086B
:1019F00004F007030D461446303354EA050206F896
:101A0000013DF1D1079AD10740F18480302B00F0DD
:101A100081803022731E06F8012C30AAD21A0D9252
:101A20001E467AE098F800302A2B08F1010401F0F4
:101A3000B181A3F13000092898BF002501F264812B
:101A400014F8013B05EB850500EB4505A3F13000DB
:101A50000928F5D945EAE575A046FAE6079B43F063
:101A60008003079398F80030F1E6A3F130000023DB
:101A70001C4618F8013B04EB840400EB4404A3F17A
:101A800030000928F5D90C94E3E61193AB46002AFF
:101A900041F0C981079B43F010030793079B980609
:101AA00040F130850E9F073727F00707D7E900235D
:101AB00007F108010E9114461D46002A73F1000338
:101AC000C0F25B85BBF1000F9DF86F70C0F23885E6
:101AD000079B23F08003079354EA050300F0DB81A2
:101AE000002D08BF0A2CC0F0DB8130AE204629460D
:101AF0000A22002305F09EFE303206F8012D204612
:101B0000294600230A2205F095FE04460D4654EAB4
:101B10000503EBD130AB9B1B0D930D9B5B45B8BF11
:101B20005B4608930023139317B1089B0133089376
:101B3000079B13F002030F9302D0089B0233089314
:101B4000079B13F08403109340F0D7820C9B089AF4
:101B50009D1A002D40F3D182102D2599249A374FDC
:101B600027DD189648461024B946099E2F460A9D3F
:101B700004E0103F102F00F1080016DD01322F4B5A
:101B800024921031072A259180E81800F1DD23AA5C
:101B90003146284604F072FF00287FF4F8AE103F6B
:101BA000102F2599249A30A8E8DC189E3D464F4610
:101BB000814601326C18072A25942492C9F80070D6
:101BC000C9F8045000F328849DF86F7009F10809E2
:101BD00077B1249B013301340DF16F010122072BF2
:101BE0002594249389E8060000F3A08309F10809ED
:101BF0000F9B6BB1249B013302341CA90222072BDB
:101C00002594249389E8060000F39C8309F10809D0
:101C1000109B802B00F0D5820D9BC3EB0B07002F90
:101C200039DD074A249B0F92102F28DD22464FF002
:101C3000100B0A9D099C0AE0147C4000347C400093
:101C4000E07B4000103F102F09F1080916DD013339
:101C50001032072B2592249389E8000CF2DD23AA89
:101C60002146284604F00AFF00287FF490AE103F7A
:101C7000102F259A249B0DF1C009E8DC144601338E
:101C80000F9A24933C44072B259489E8840000F3A1
:101C9000418309F10809079BDA0500F13082249B92
:101CA0000D99C9F8006001330C44072B2594C9F83D
:101CB0000410249300F3188309F10809079B5907BE
:101CC0003FD50C9B089A9D1A002D3ADD102D249BC0
:101CD000BC4F23DD22461026DDF828B0099C04E025
:101CE000103D102D09F1080917DD0133B549249382
:101CF0001032072B259289E84200F1DD23AA214604
:101D0000584604F0BBFE00287FF441AE103D102D74
:101D1000259A249B0DF1C009E7DC144601332C44BD
:101D2000072B25942493C9F80070C9F8045008DDE6
:101D300023AA09990A9804F0A1FE00287FF427AE8F
:101D4000259C0B9B0C9A08998A42ACBF9B185B1888
:101D50000B93002C40F0D482002324930DF1C00992
:101D600042E51193AB46002A41F059800E9F073798
:101D700027F0070303F108020E921A6814925B68B9
:101D80001593159B149D23F00044284621464FF0DF
:101D9000FF328D4B05F010FD002840F0C18428462D
:101DA00021464FF0FF32884B05F0E8FC002840F058
:101DB000B784149815990022002305F0D5FC00285B
:101DC00040F04B879DF86F70804E814B079921F052
:101DD00080010791119903224FF0000B08924729C7
:101DE000D8BF1E460D92CDF84CB09DE6079B43F040
:101DF0000803079398F8003029E51193AB46002AB1
:101E000041F00980079B43F010030793079A12F0F3
:101E100020037FF4D2AD079911F0100200F007857E
:101E20000E988DF86F30BBF1000F046800F10407C5
:101E30004FF00005C0F221850A4622F08002079289
:101E400054EA05020E9700F043811F46CBE511933B
:101E5000AB46002A40F0D787079B43F01003079357
:101E6000079A12F0200300F032830E9F073727F005
:101E70000703002703F10801BB450E91D3E9004594
:101E80008DF86F70C0F25C8322F08003079354EAF0
:101E900005037FF425AEBBF1000F00F0FE800024A7
:101EA00040AE303406F8414D34E61193AB46002A7B
:101EB00040F0A587079B47489D0640F197800E9FFD
:101EC000073727F00703D3E9004503F108020E9214
:101ED000079A12F0010700F0418254EA050300F06E
:101EE000F5849DF844208DF871200027079A8DF81D
:101EF0006F703023BB458DF8703042F00203C0F2A2
:101F0000A98622F0800343F00203079330AE230931
:101F100004F00F0143EA05732A091C461546435C89
:101F200006F8013D54EA0503F1D1F3E50E9911934A
:101F30000A688DF8982000230A461F468DF86F30F6
:101F4000043201230893BB4613970E920D9326AEDD
:101F5000EEE51193AB46002A3FF4A0AD8DF86F106B
:101F60009CE5079B43F04003079398F800306EE42C
:101F700098F8003000297FF46AAC0122202166E441
:101F8000079B43F00103079398F800305FE40E9C31
:101F900023680C9318460028234603F10403FFF638
:101FA000B8AC0E9398F8003051E498F80030012254
:101FB0002B214CE41193AB46002A3FF451AF8DF82E
:101FC0006F104DE7347C4000FFFFEF7FF47B400053
:101FD000F07B4000007C40001193AB46002A40F0AB
:101FE0000387079B99489D063FF569AF079BDC0671
:101FF00040F15E840E9A1346043314680E93002554
:1020000066E798F800306C2B00F0E184079840F008
:10201000100007901BE4002A40F0DB86079B9B061C
:1020200040F12F840E9A0B991368CD17084604329D
:1020300029460E92C3E90001FFF7D6BB079B43F088
:102040002003079398F8003001E40E9A1193166864
:1020500000248DF86F40171D002E00F0BD85002D67
:10206000C0F20F852A462146304603F061FE002863
:1020700000F00486831B0D93A34623EAE3730E97B7
:102080000893CDF84CB09DF86F704DE56F481192F4
:10209000BBF1000F40F073815F464FF0000BCDF8AD
:1020A00034B030AE39E51193002A40F0B086119A71
:1020B000002A3FF465AC002301211F4608918DF8EA
:1020C00098208DF86F309B4613930D9126AE2FE527
:1020D000BBF1000F00F0DD8500270024002582E41D
:1020E0005A480793119254EA05030E974FF00007E0
:1020F0007FF40CAF0024002508E7259C68E5119BC0
:10210000652B40F3A980149815990022002305F04F
:1021100021FB002800F03581249B4D4AC9F800209E
:10212000013301340122072B25942493C9F804209C
:1021300000F3E68309F108091D9B129A934203DB21
:10214000079BDB077FF5BAAD249B1699179AC9F850
:10215000002001330C44072B2594C9F80410249364
:1021600000F33F8409F10809129B5D1E002D7FF7E3
:10217000A5AD384A249B0F92102D40F3E68110261E
:102180000A9FDDF824B005E009F10809103D102D83
:1021900040F3DB8101331034072B25942493C9F8D5
:1021A00000A0C9F80460EFDD23AA5946384604F0C0
:1021B00065FC00287FF4EBAB259C249B0DF1C00946
:1021C000E4E70C9B089A9F1A002F7FF725AD214A60
:1021D000249B0F92102F2BDD4A462146B94610252D
:1021E00037460A9C099E06E0A9F11009B9F1100FC3
:1021F00002F1080218DD01331031072B25912493D9
:10220000C2F800A05560EFDD23AA3146204604F055
:1022100035FC00287FF4BBABA9F11009B9F1100F10
:102220002599249B30AAE6DC3E460C464F46914653
:1022300001330F9A24933C44072B259489E88400AA
:1022400000F3458209F10809E6E400BF147C400070
:10225000307C4000E07B4000129B249D012B40F32A
:102260000882013501340123072D25942495C9F8EE
:102270000060C9F8043000F30D8209F10809169ACC
:10228000179BC9F8003001351444072D2594249577
:10229000C9F8042000F30E8209F1080900231498FC
:1022A0001599002205F056FA129B002840F0C380D1
:1022B000013B013501361C44072D24952594C9F8AE
:1022C0000060C9F8043000F3F58009F10809199A93
:1022D000C9F80420013514441FAB072D259424951B
:1022E000C9F800307FF7E8AC23AA09990A9804F0EE
:1022F000C5FB00287FF44BAB259C0DF1C009DDE444
:1023000023AA09990A9804F0B9FB00283FF424ADE8
:10231000FFF73DBB23AA09990A9804F0AFFB0028F8
:102320007FF435AB259C0DF1C009B4E423AA0999CB
:102330000A9804F0A3FB00287FF429AB259C0DF13B
:10234000C00955E423AA09990A9804F097FB0028CC
:102350007FF41DAB259C0DF1C00959E4BBF1000FC2
:102360008DF86F70C0F2D88222F08003079354EA90
:1023700005037FF4CBADBBF1000F3FF48DAE00271A
:10238000B8E61D9D002D40F3CA82139B129A93421A
:10239000A8BF1346002B1D460DDD249BC9F8006025
:1023A00001332C44072B2594C9F80450249300F3DF
:1023B0009C8309F10809139B002DA8BF5B1B002B10
:1023C0001D4640F3F680BA4A249B0F92102D40F32D
:1023D0008A8222461027DDF828B0099C05E009F121
:1023E0000809103D102D40F37D8201331032072B78
:1023F00025922493C9F800A0C9F80470EFDD23AA40
:102400002146584604F03AFB00287FF4C0AA259ADA
:10241000249B0DF1C009E4E723AA09990A9804F066
:102420002DFB00287FF4B3AA9DF86F70259C0DF159
:10243000C009FFF7CDBB5E1E002E7FF748AF9C4B57
:102440000F93102E2CDDCDF834801027B046DDF828
:1024500028B0099E06E0A8F11008B8F1100F09F1A4
:1024600008091ADD01351034072D25942495C9F883
:1024700000A0C9F80470EEDD23AA3146584604F0E6
:10248000FDFA00287FF483AAA8F11008B8F1100F14
:10249000259C249D0DF1C009E4DC4646DDF834801E
:1024A0000F9B01353444072D2594249589E8480075
:1024B0007FF70BAF23AA09990A9804F0DFFA0028E6
:1024C0007FF465AA259C249D0DF1C009FFE60799BC
:1024D00011F0100200F008810E988DF86F30BBF1FA
:1024E000000F046800F104074FF0000526DB0A46E0
:1024F00022F08002079254EA05020E971F467FF4ED
:10250000EFAAC8E4079BD9062AD4079B5A0627D509
:102510000E99B1F900400431E51722462B460E9181
:10252000FFF7CBBA0E998DF86F30BBF1000F0C6836
:1025300001F104074FF0000580F247820E971F4615
:1025400054EA05037FF4CCAAAAE401330F9A24933A
:102550002C44072B259489E824007FF7ADABC3E614
:102560000E9A146813460433E51722460E93002A88
:102570002B4673F10003BFF6A5AA64424FF02D0766
:1025800065EB4505BBF1000F8DF86F70FFF6A8AA4B
:10259000079B23F080030793FFF7A2BA23AA0999A8
:1025A0000A9804F06BFA00287FF4F1A9259C0DF13C
:1025B000C009139A1D9B32441746129A934247DB77
:1025C000079AD50744D412990E44F51BCB1A9D42A5
:1025D000A8BF1D46002D2E460DDD249AC9F80070B7
:1025E00001322C44072A2594C9F80450249200F3A0
:1025F0000B8309F10809002EACBF9D1B1D46002D61
:102600007FF75CAB2A4A249B0F92102D9DDD10268C
:102610000A9FDDF824B004E009F10809103D102DEF
:1026200093DD01331034072B25942493C9F800A0BF
:10263000C9F80460F0DD23AA5946384604F01EFAB2
:1026400000287FF4A4A9259C249B0DF1C009E5E78F
:10265000249A16981799C9F8001001320444072AE1
:102660002594C9F80400249200F3A98209F108090D
:10267000A9E7079BD8073FF5F4AD013501340123E5
:10268000072D25942495C9F80060C9F804307FF718
:102690001CAE0FE723AA09990A9804F0EFF9002865
:1026A0007FF475A9259C249D0DF1C009E7E500BFC5
:1026B000E07B400023AA09990A9804F0DFF900287A
:1026C0007FF465A9259C249D0DF1C009E6E523AAA8
:1026D00009990A9804F0D2F900287FF458A9259C9A
:1026E0000DF1C009FFF798BA079911F040033FF4C4
:1026F00019AF0E988DF86F20BBF1000F048800F120
:1027000004074FF00005C0F2B98121F08003079360
:1027100054EA05030E9717467FF4E2A9FFF7BBBB07
:10272000149C22462046159C2346214605F044F879
:10273000002840F01783119BBBF1FF3F23F02003DB
:102740000D9300F07082472B00F09281079B43F4B9
:1027500080731093159B1F1E149B0893BBBF3B46B1
:1027600003F1004700232D230F93119B662B00F0EC
:102770005D82462B00F051810D9B089A452B21A8C4
:102780001EA90CBF0BF101055D46049003911DA825
:1027900002213B460290019500910A9801F0C4FB8A
:1027A000119B672B064640F09082079BDA0740F1A9
:1027B000AF827419089839460022002304F0CAFF3A
:1027C000002840F09081219B9C4206D930215A1C60
:1027D00021921970219B9C42F9D89B1B12930D9B4F
:1027E000472B00F07981119B652B40F37D82119B73
:1027F000662B1D9B139300F05B82139A12998A42F9
:10280000C0F23082079BD90700F1848222EAE2738A
:102810000D92672211920F9A002A40F0538108937B
:10282000109B079393469DF86F70FFF77DB907994A
:1028300011F0400315D00E988DF86F20BBF1000FFA
:10284000048800F104074FF0000516DB21F0800337
:10285000079354EA05030E973FF43AAC1746FFF787
:10286000C2B80E998DF86F30BBF1000F0C6801F102
:1028700004074FF0000580F2A5800E970027FFF7B0
:10288000B2B8079BDF060BD4079B5E0608D50E9AED
:10289000136804320E92BDF82C201A80FEF7A4BFF4
:1028A0000E9A136804320E920B9A1A60FEF79CBFC0
:1028B0000E9A079B13F0400F134603F104030CBF5D
:1028C000146814880E930025FFF702BB0027BB4550
:1028D0008DF86F70FFF60EAC079B23F08003079313
:1028E000FFF7D6BB144601330F9A24932C44072BD1
:1028F000259489E824003FF751AE09F1080958E60C
:1029000023AA09990A9804F0B9F800287FF43FA88F
:10291000259C0DF1C0090FE40E9FFFF7E4BB249B3B
:10292000B54AC9F80020013301340122072B259450
:102930002493C9F8042000F38E8009F108092DB909
:10294000129B1BB9079BDF077FF5B8A9249B16993B
:10295000179AC9F8002001330C44072B2594C9F8B5
:102960000410249300F3C28109F108096D42002D7F
:1029700040F39B80A14A0F92102D40F3C380224662
:102980001027DDF828B0099C05E009F10809103D81
:10299000102D40F3B68001331032072B259224937B
:1029A000C9F800A0C9F80470EFDD23AA21465846F3
:1029B00004F064F800287EF4EAAF259A249B0DF118
:1029C000C009E4E7079AFFF738BA079A90E5079B32
:1029D00043F02003079308F1010898F80030FEF750
:1029E00036BF23AA09990A9804F048F800287EF413
:1029F000CEAF259C0DF1C009FFF7B6BB40210A9868
:102A000002F0DEFE099A10601061002800F0E581F6
:102A1000099A40235361FEF7D8BE21A81EA904904D
:102A200003911DA803210290089ACDF804B03B46FB
:102A300000910A9801F078FA5D460646119B462BF4
:102A400006EB05047FF4B6AE3378302B00F07C81C2
:102A50001D9D2C44AEE623AA09990A9804F00EF8AD
:102A600000287EF494AF1D9D259C0DF1C00966E7FA
:102A7000BBF1000F08BF4FF0010B67E60E9717463A
:102A80005EE53046FEF71CFEA34603460D90FFF7B9
:102A9000F4BA23AA09990A9803F0F0FF00287EF4FB
:102AA00076AF259C249B0DF1C0091299C9F80060EE
:102AB00001330C44072B25942493C9F804107FF7A5
:102AC000FBA811E42D270893109B07938DF86F70D6
:102AD0004FF0000BFFF729B81D9BDD1C1EDB9B454B
:102AE0001CDB139389E6234677E623AA09990A9803
:102AF00003F0C4FF00287EF44AAF259C0DF1C00905
:102B000059E4144601330F9A24932C44072B25943F
:102B100089E82400BDDC09F10809C6E7119A023AE8
:102B20001192013B002B9DF844201D93B8BF5B42DE
:102B30008DF87C20B4BF2D222B22092B8DF87D200F
:102B400040F3F1800DF18B0004462D4A82FB0321F6
:102B5000DA17C2EBA10202EB8201A3EB410303F1FE
:102B60003001092A134604F8011DEEDC21463033FA
:102B7000DAB201F8012D884240F23A810DF17E016E
:102B8000234601E013F8012B01F8012B9842F9D1FB
:102B9000431C1B1B0DF17E0213441FAA9B1A129AA1
:102BA0001993012A13440D9340F3EA800D9B169A62
:102BB000134400220D93139223EAE3732BE623AA16
:102BC00009990A9803F05AFF00287EF4E0AE1D9B95
:102BD000259C0DF1C009F6E4062D2B4628BF0623DF
:102BE0000D9323EAE373B3460E9713963746089383
:102BF000044EFEF799BF00BF307C4000E07B4000F0
:102C000067666666287C400023AA09990A9803F043
:102C100035FF00287EF4BBAE1D9B129A259CD31A6B
:102C20000DF1C009E7E44FF0060B8FE521A81EA9BE
:102C3000049003911DA803210290089ACDF804B0D6
:102C40003B4600910A9801F06FF95D46064600EB9D
:102C50000B04F9E60793FFF759B92D278DF86F702C
:102C6000FFF7B2B8169A129B1344139A0D93002AD9
:102C70007EDD672223EAE3731192CCE525EAE57352
:102C80000E9708930D95834613909DF86F70FEF78D
:102C90004BBF079BDB075F4605D540AE302306F8E8
:102CA000413DFEF737BFCDF834B030AEFEF735BF4B
:102CB000002B7DDDBBF1000F3DD1079AD4073AD43C
:102CC0001A460D9223EAE373A5E5119B472B7FF487
:102CD00070AD079BDB073FF5B1AE219B9B1B1293A9
:102CE0000D9B472B3FF4F8AE1D9B1AE723AA0999C9
:102CF0000A9803F0C3FE00287EF449AE1D9D259C72
:102D0000249B0DF1C00931E6A0460025FEF7A1BDC8
:102D1000219B62E5169A139B134467220D9311922F
:102D200023EAE37377E5303330228DF87F308DF876
:102D30007E2020AB31E7139B169A9D1805EB0B0301
:102D40000D9323EAE37366E50898394600220023D1
:102D500004F000FD00287FF47BAEC5F101051D9550
:102D60002C4427E5324E334B9DF86F70FFF72EB899
:102D7000139B0D9AC3F101031A4413460D9278E791
:102D8000079B13F001037FF411AF13930D9B23EA0C
:102D9000E37340E50E9898F8013005680430002D83
:102DA0000E90A046BEF653AD4FF0FF35FEF74FBD77
:102DB000BBF1000F02D1079BD80707D5169B5D1CFE
:102DC00005EB0B030D9323EAE37324E501230D9335
:102DD00021E58DF86F10FFF721B90A9A0C231360D3
:102DE0004FF0FF30FEF7DCBD8DF86F10FFF7F9B83C
:102DF0000DF17E03D1E68DF86F10FEF7D9BD8DF889
:102E00006F10FFF757B88DF86F10FFF725B88DF8E2
:102E10006F10FFF74CB98DF86F10FEF7F3BF8DF808
:102E20006F10FEF7A3BF8DF86F10FEF733BE00BF23
:102E3000FC7B4000F87B40004B6E2DE9F0479C0482
:102E400092462CD5936812683BB30F46804602F138
:102E5000080919E96000B60817D0043D002401E014
:102E6000A64210D03A4655F8041F404602F02AF90F
:102E7000431C04F10104F3D10023CAF80830CAF856
:102E80000430BDE8F087DAF80830A3EB8603CAF80F
:102E9000083009F10809002BDBD10020ECE702F033
:102EA00059FA0023CAF80830CAF80430BDE8F087A0
:102EB0002DE9F04FABB01C4600919046049305906D
:102EC00018B1836B002B00F0DE800098B0F90C1075
:102ED0008AB2950407D4436E41F4005223F40053A0
:102EE0008281436692B2110740F1B180009B1B6959
:102EF000002B00F0AC8002F01A020A2A00F0B58024
:102F000000230DF1680B02930F930E93CDF834B0AC
:102F1000DA4698F800304446FBB1252B02D11CE07C
:102F2000252B03D014F8013F002BF9D1C8EB040581
:102F30009DB10E9B0F9ACAF8008001332A44072BDB
:102F4000CAF804500F920E937BDD002A40F02885CA
:102F5000029B0E922B44DA4602932378002B00F05A
:102F60003E8400214FF000034FF0FF328DF82F30E8
:102F700004F101086378019208460E460C4608F1F8
:102F80000108A3F12002582A00F29383DFE812F02F
:102F90004603910391034E0391039103910391031F
:102FA0009103910389026702910380006C029103EF
:102FB000C6015902590259025902590259025902CD
:102FC00059025902910391039103910391039103D3
:102FD0009103910391039103CB0191039103910319
:102FE00091039103910391039103910391031402BF
:102FF00091039103910391039103EE0291039103D5
:1030000011039103910391039103910391039103A0
:1030100091039103910334038A0391039103910374
:1030200067038A03910391036C039103790395026B
:103030008500E90291039B029103BA029103910377
:1030400053030AF1080A029B2B44029385E7009977
:10305000059800F061FE002840F05885009B9A8991
:1030600002F01A020A2A7FF44BAF0099B1F90E3030
:10307000002BFFF645AF23464246059800F016FEAA
:103080002BB0BDE8F08F01F0B3FF1EE7644204935C
:1030900046F0040698F8003071E7302104988DF866
:1030A0003010019906944FF0000378228DF82F30EC
:1030B000002903468DF83120046803F104034FF022
:1030C000000546F00202C0F2258526F0800654EA8B
:1030D000050246F00206049340F0BF84B348019B0A
:1030E000002B40F01C8499460023019303935F4614
:1030F000019B039A9342B8BF13461D46B9F1000FD6
:1031000000D0013516F00203079318BF023516F000
:103110008403089340F0F182069B5C1B002C40F373
:10312000EC82102C40F35685DFF88492DDF838E00D
:103130000F9AD4461023C2467046A8464D46DDF885
:10314000149007E000F1020E0CF1080C0846103C48
:10315000102C13DD411C103207290F92CCF80050BF
:10316000CCF804300E91EDDD002A40F0B782103C1F
:10317000102C10464FF0010EDC46EBDCA9467046E1
:103180004546D046E246224407280F92CAF80090EE
:10319000CAF804400E9000F375839DF82F300AF1B1
:1031A000080A00F1010E002B40F0B082079B002BB3
:1031B00000F0C38202320CA90223BEF1070F0F9266
:1031C000CDF838E08AE80A0040F37883002A40F01E
:1031D0000A84089B802B4FF0010E1046DA4640F01F
:1031E000B082069B5C1B002C40F3AB82102CDFF8F6
:1031F000C49140F30B85D6461023C246A8464D46DF
:10320000DDF8149007E000F1020C0EF1080E0846FC
:10321000103C102C13DD411C103207290F92CEF800
:103220000050CEF804300E91EDDD002A40F01583F9
:10323000103C102C4FF0010C1046DE46EBDCA9468A
:103240004546D046F2462244BCF1070F0F92CAF819
:103250000090CAF80440CDF838C000F3D283019B37
:1032600003995C1A002C0AF1080A0CF1010E604661
:1032700000F36D820399CAF800700A44BEF1070F8B
:103280000F92CAF80410CDF838E040F3CE82002A3D
:1032900040F03A8370070E9238D5069B5C1B002CD9
:1032A00034DDDA46102C40F3AB84DFF804910E993C
:1032B0004F461026DDF8149006E0881C0AF1080A33
:1032C0001946103C102C13DD4B1C1032072B0F92AB
:1032D000CAF80070CAF804600E93EEDD002A40F0D0
:1032E0008E82103C102C4FF001001146DA46EBDCC8
:1032F000B946224407280F92CAF80090CAF8044041
:103300000E9040F39B82002A40F02584029B069A8F
:10331000AA42ACBF9B185B19029399E246F0800663
:1033200098F800302BE60694002940F0AF8446F070
:103330001006B30640F112830499073121F007010A
:10334000D1E900230831049114461D46002A73F187
:103350000003C0F28683019B9DF82F90002BC0F2E2
:103360001A8354EA050326F0800600F0ED80002D54
:1033700008BF0A2CC0F0ED805F46204629460A228D
:10338000002304F057FA303207F8012D2046294671
:1033900000230A2204F04EFA04460D4654EA0503BF
:1033A000EBD1C7EB0B030393A2E600BF147C4000F4
:1033B000547C4000447C40000694002940F0628424
:1033C00046F0100616F0200300F0AE82049B07338F
:1033D00023F007034FF000028DF82F20D3E90045BA
:1033E00003F10802019B0492002BC0F2748154EA9D
:1033F000050326F0800640F06E81019B002B00F053
:1034000030844FF00009002400255F46E20842EABC
:103410004572E90804F007030D461446303354EAB8
:10342000050207F8013DF1D1F407BAD5302BB8D029
:1034300030227B1E07F8012CC3EB0B0203921F46C0
:1034400056E6A3F13002002418F8013B04EB840493
:1034500002EB4404A3F13002092AF5D991E598F86A
:10346000003001212B208AE598F800302A2B08F142
:10347000010500F0DD83A3F13002092AA84698BFB8
:10348000002500F2CE8318F8013B05EB850502EB21
:103490004505A3F13002092AF5D945EAE572019202
:1034A0006FE5049A14681346002C03F10403FFF639
:1034B000EDAD049398F8003061E50694002981D0C1
:1034C0008DF82F007EE7049A069417684FF00003EA
:1034D0008DF82F30141D019B002F00F08683002BE8
:1034E000C0F25F831A460021384602F021FC002812
:1034F00000F08F83C31B0393002304949DF82F9047
:103500000193F5E50694002940F0B98316F02009EF
:1035100035D116F0100303D116F0400940F02A838C
:10352000049A13461468019A8DF82F90002A03F12B
:1035300004034FF00005C0F2328354EA050226F07E
:10354000800604937FF413AF019B002B3FF4CCADB6
:1035500000242AAF303407F8414DC7EB0B03039327
:10356000C6E546F0200698F8003008E506940029E4
:1035700040F06E8346F0100616F02009C9D0049B77
:10358000073323F007034FF000028DF82F20D3E913
:10359000004503F10802019B0492002BC0F2F9815F
:1035A00054EA050326F080064FF000097FF4DFAEF1
:1035B000CAE70694002940F05183B206AE4841D5CF
:1035C000049A073222F00702D2E9004502F108010D
:1035D000049116F0010900F0778154EA050240F0E9
:1035E00026824FF000038DF82F30019B002BC0F294
:1035F000968126F0800672E5049A069413688DF889
:10360000403013464FF00001012504338DF82F1090
:103610000493039510AF0023019373E598F80030ED
:1036200000287FF4ACAC01212020A8E446F001067C
:1036300098F80030A3E40694002940F00C83B20609
:103640008E48BDD40499F7060A4600F19D8175069F
:1036500040F19A8104320C8804920025B9E746F0C3
:10366000400698F800308AE498F800306C2B03BFCD
:1036700098F8013046F0200608F1010846F01006DF
:103680007DE4002940F00983B40640F11C82049ACD
:1036900002991368CD170846043229460492C3E9FB
:1036A000000136E4069400293FF443AE8DF82F0064
:1036B0003FE60694002940F0ED82002B00F08F8059
:1036C00001258DF840304FF000038DF82F30039521
:1036D00010AFA0E704934FF0000996E60DAA0099F9
:1036E00009934846FFF7A8FB00287FD10E980F9A50
:1036F000099B00F1010EDC4629E50E980F9A00F1B6
:10370000010E9DF82F30002B3FF450AD01320DF12A
:103710002F010123BEF1070F0F92CDF838E08AE8A0
:103720000A0040F3BF80002A40F04E81079900292B
:1037300040F0BE809E461046DA46089B802B3FF440
:1037400050AD019B03995C1A002C7FF793AD102CB0
:10375000DFF82C9125DDD4461023C246A8464D46FD
:10376000DDF8149007E000F1020E0CF1080C084699
:10377000103C102C11DD411C103207290F92CCF89F
:103780000050CCF804300E91EDDDD2B9103C102C75
:103790004FF0010E1046DC46EDDCA9464546D0460A
:1037A000E2462244BEF1070F0F92CAF80090CAF811
:1037B0000440CDF838E02EDC0AF1080A0EF1010EC3
:1037C00058E50DAA009901934846FFF735FB68B903
:1037D0000E980F9A019B00F1010EDC46C8E70F9B83
:1037E00023B1059800990DAAFFF726FB009B9B8942
:1037F0005A0600F18B8102982BB0BDE8F08F0DAA1C
:1038000000994846FFF718FB0028EFD10E990F9A50
:10381000481CDA4655E5002A40F0FB80039A1B92CB
:1038200001230F921A970E93DA460AF1080A7107DC
:1038300004D5069B5C1B002C3FF734AD029B069918
:10384000A942ACBF5B185B190293002A40F0B38019
:1038500000230E93DA46FFF75CBB0DAA009907938D
:103860004846FFF7E9FA0028C0D10E980F9A079B47
:1038700000F1010CDE46CBE4007C4000147C4000EB
:10388000447C4000002A40F033819DF82F30002B0B
:1038900000F0F58001230DF12F011A461B939E467F
:1038A0001A91DA4670460AF1080A0EF1010E7DE41B
:1038B0000CA902229E461A911B92DA4670460AF122
:1038C000080A0EF1010E38E7019B8DF82F90002BAE
:1038D000C0F22A8154EA050326F080063FF4FFABCC
:1038E0005F46230904F00F0143EA05732A091C46C9
:1038F0001546435C07F8013D54EA0503F1D1C7EBD7
:103900000B030393FFF7F4BB0DAA00990598FFF78B
:1039100093FA00287FF46AAF0F9ADA4687E74FF0F0
:10392000000900240025DBE716F0100200F0B28049
:1039300004998DF82F300A460C680199002902F18C
:1039400004024FF00005C0F2598154EA050126F047
:10395000800604923FF451AD994656E5F7060AD425
:10396000750608D50499B1F900400431E5172246DF
:103970002B460491EAE4049A146813460433E517CD
:10398000049322462B46E1E4146804320492002595
:103990001FE64FF0000954EA05037FF4E8ACD8E5D0
:1039A0000DAA00990598FFF747FA00287FF41EAF8B
:1039B000DA46FFF748BB0DAA00990598FFF73CFAD5
:1039C00000283FF445AF11E70DAA00990598FFF7CD
:1039D00033FA00287FF40AAF0E980F9A00F1010E17
:1039E000DA46FFF7E3BB0DAA00990598FFF724FA22
:1039F00000287FF4FBAE0E980F9A00F1010EDA4614
:103A00009BE6002A40F0D8804FF0010E1046DA46BF
:103A100097E60DAA00990598FFF70EFA00287FF4A3
:103A2000E5AE0E9B0F9A03F1010EDA4622E4302236
:103A30008DF83020019A8DF83130002A4FF00003C4
:103A40008DF82F3046F00203C0F2CB8026F08006BE
:103A500046F002064FF0000942E74FF00009904897
:103A60003EE7019B64424FF02D0965EB4505002BB5
:103A70008DF82F90FFF67BAC26F0800677E4079B4D
:103A8000002B72D00CAB02221A931B924FF0010E46
:103A9000DA4613E716F0400948D004998DF82F2034
:103AA0000B460C880199002903F104034FF000052F
:103AB000FFF610AE54EA050126F0800604933FF4A9
:103AC0009CAC9146A1E4F0060AD4710608D5049A8C
:103AD000136804320492BDF808201A80FFF719BA5F
:103AE000049A136804320492029A1A60FFF711BA1A
:103AF0000DAA00990598FFF79FF900287FF476AE8C
:103B00000E980F9A00F1010EDA46FAE54FF0FF30F9
:103B1000FFF7B6BA6248164654EA050204934FF01E
:103B200000097FF4DDAEFCE6049BF5E7049A8DF80E
:103B30002F9013461468019A002A03F104034FF0F2
:103B40000005FFF6C7AD54EA050226F0800604938F
:103B50007FF45BAC51E40DAA00990598FFF76CF96E
:103B600000287FF443AE0F9A68E610464FF0010E2E
:103B7000DA46E6E504998DF82F300A460C8801995B
:103B8000002902F104024FF000054EDB54EA050162
:103B900026F08006049299467FF4E9ABD4E40493BE
:103BA000F9E638460494FDF78BFD002303909DF859
:103BB0002F900193FFF79CBA0DAA00990598FFF783
:103BC0003BF900287FF412AE0E980F9A00F1010E17
:103BD000DA46B6E50E980F9ADFF8CC900130FFF781
:103BE000D2BA1E464FF000097AE6062B28BF0623FC
:103BF0000393049423EAE3752A4F0CE504926AE5E3
:103C00000E98DFF8A4900130FFF773BBF446FFF77E
:103C10001ABB019B9DF82F90039304940190FFF72A
:103C200067BA00220192FFF7ACB904929946B2E656
:103C3000049A136801930432002B049298F801301F
:103C4000A846BFF69CA94FF0FF320192FFF797B943
:103C50008DF82F008EE48DF82F00F0E48DF82F0002
:103C6000ABE49946F30705D52AAF302307F8413D69
:103C7000FFF797BB019B03935F46FFF739BA8DF8B7
:103C80002F0043E48DF82F00FFF79ABB8DF82F002B
:103C9000FFF74DBB8DF82F000FE58DF82F00F3E4F3
:103CA000147C4000287C4000547C4000F0B50C4659
:103CB000ADF26C4D8989666EE589199621F0020195
:103CC000666AADF80E500025E769ADF80C1009964C
:103CD00006951AAE4FF480656946009604960295E3
:103CE000059507970646FFF7E3F8051E07DB304604
:103CF000694601F0E9F8002818BF4FF0FF35BDF81C
:103D00000C305B0603D5A38943F04003A38128460A
:103D10000DF26C4DF0BD00BF38B5304B1B68054649
:103D20000C4613B19A6B002A38D0B4F90C2093B228
:103D300018070CD52069A8B113F001021ED06369E1
:103D400000225B42A361A260F0B1002038BDD90619
:103D50003CD5580726D4206942F00803A3819BB2C2
:103D60000028E9D103F42072B2F5007FE4D02846A0
:103D7000214601F0D9FCA3892069DDE7990758BFE6
:103D80006269A2600028E0D1B4F90C301A06DDD5D2
:103D900043F04003A3814FF0FF3038BD184601F0D7
:103DA00027F9C2E7216B51B104F14003994204D0D5
:103DB000284601F0E7F9B4F90C200023236300231F
:103DC0002069636022F024022060C5E742F04002CF
:103DD00009232B604FF0FF30A28138BD4004402002
:103DE000024B13B1024800F005B870470000000014
:103DF00005504000002301461A46184602F062BFF3
:103E000002690B69934200F38D802DE9F04F03F1B5
:103E1000FF3801F1140700F1140B57F828205BF864
:103E200028304FEA880483B00132B3FBF2F90BEB80
:103E30000403009407EB040A0193B9F1000F39D091
:103E40000025BC46DE462B465CF8046BDEF80020FD
:103E5000B4B209FB0455360C2C0C09FB0644ADB278
:103E60005B1BA6B213FA82F3C6EB124606EB23469F
:103E70009BB243EA0643E2454EF8043B4FEA144541
:103E80004FEA2643E0D2009B5BF8033093B9019CD4
:103E9000231F9B450CD254F8043C4BB9A4F10803F2
:103EA00002E01A68043B1AB99B4508F1FF38F8D3C1
:103EB000C0F81080044602F095FA00282EDB09F1C4
:103EC00001095D46002357F8041B28688AB29A1A34
:103ED000090C12FA80F2C1EB104303EB224391B2BA
:103EE00041EA0341BA4545F8041B4FEA2343EAD2AD
:103EF0005BF828200BEB880382B91A1F93450BD27D
:103F000053F8042C42B9083B02E01A68043B1AB982
:103F10009B4508F1FF38F8D3C4F81080484603B039
:103F2000BDE8F08F002070472DE9F04F016C97B08D
:103F30008146239C92469B4649B1426C4A600123CC
:103F400093408B6002F06CF80023C9F84030BBF15D
:103F5000000FD84633DB00232360A54B1A4608EA3E
:103F60000303934214D0504659460022002303F025
:103F7000F1FB054648B3229A01231360249B002BD2
:103F800000F0C5809B481860013817B0BDE8F08F7D
:103F9000229A42F20F731360BAF1000F00F0A28070
:103FA0009548249B002BF0D0C378002B00F0B18003
:103FB00000F10803249A136017B0BDE8F08F0123C5
:103FC0002BF000482360C346C7E714AA15AB019243
:103FD000009352465B46484602F0AEFA5FEA185438
:103FE000089040F08880149D159C2C4404F23243C4
:103FF000202B40F39182C3F1400304F2124008FAEF
:1040000003F82AFA00F040EA080003F0C5F801239B
:10401000013CA1F1F87110930022784B02F07EFF71
:104020006DA3D3E9002303F02DF96DA3D3E9002399
:1040300002F076FF064620460F4603F0BDF86AA35D
:10404000D3E9002303F01EF902460B4630463946F9
:1040500002F066FF06460F4603F0C4FB0022049000
:1040600000233046394603F07FFB002840F03082C1
:10407000049E162E00F22982614B03EBC603D3E99E
:10408000000152465B4603F08DFB002800F0498298
:10409000731E049300230C932C1B631E029300F1E8
:1040A000328200230593049B002BC0F22382029AE4
:1040B0000B9311461944002302910A93209B092B6C
:1040C00029D8052B40F35886043B20930025209BDC
:1040D000023B032B00F23586DFE813F02C032802A5
:1040E00037035904444B474AC8F31300002814BF50
:1040F0001846104655E7CBF3130343F07F51109554
:104100005046A4F2FF3441F44011149D84E73E4828
:104110003BE7C31C4EE70021C9F8441048462091F4
:1041200001F058FF4FF0FF330693209A0D930123BF
:1041300007902192C9F840000993159B002BC0F20B
:10414000D180049A0E2A00F3CD802D4B03EBC203DD
:10415000D3E90034CDE90234219B002BC0F2008367
:1041600056465F4650465946DDE902AB52465B462D
:1041700003F0B2F903F036FB044603F01DF8524693
:104180005B4603F07FF80B4602463946304602F0A4
:10419000C5FE079D04F130032B70069B012B0646DC
:1041A0000F4605F1010562D00022184B03F06AF8B2
:1041B0000022002306460F4603F0CCFA00287ED1E9
:1041C000CDF81490DDF818A0DDF81CB0DDE9028907
:1041D00029E000BFAFF3008061436F63A787D23F40
:1041E000B3C8608B288AC63FFB799F501344D33FE6
:1041F0000000F07F317C4000707C40000000F83F00
:10420000807C4000647C4000307C40000000244002
:1042100003F038F80022002306460F4603F09AFA0E
:10422000002840F0B78342464B463046394603F0FB
:1042300053F903F0D7FA044602F0BEFF42464B465C
:1042400003F020F802460B463046394602F066FE7F
:1042500004F1300E05F801EBCBEB050ED645064612
:104260000F464FF00002B04BD2D1DDF81490324629
:104270003B463046394602F053FE06460F4602469C
:104280000B46DDE9020103F06FFA40B932463B46C6
:10429000DDE9020103F05EFA88B1E3070FD515F8F6
:1042A000014C079A6B1E04E09A4200F02C8413F82C
:1042B000014D392C03F10105F6D001341C70089929
:1042C000484601F0ADFE0022049B2A70229A013379
:1042D0001360249B002B00F0A78307981D6017B084
:1042E000BDE8F08F099A002A00F01281209A012A75
:1042F00040F35882069B0A9A5F1EBA42C0F2978327
:10430000D71B069B002BC0F28A84059D069B059A4D
:104310001A440592029A01211A444846029201F079
:1043200017FF064665B1029900290B4608DDA94230
:10433000059AA8BF2B46D21AED1ACB1A0592029302
:104340000A9B002B40F3FC82099A002A00F00182AC
:10435000002F00F0FE8131463A46484601F09AFFB0
:10436000DDF82080014642460646484601F0FAFE46
:1043700041460446484601F053FE0A9BDB1B0A9364
:1043800040F0E6810121484601F0E2FE0B9B8046A9
:10439000002B00F0198201461A46484601F07AFFC8
:1043A000209B012B804640F3F8820027D8F810307C
:1043B00008EB8303186901F07DFEC0F12000029A2A
:1043C000104410F01F0000F0F681C0F12003042B10
:1043D00040F3CA84059BC0F11C00034405931346B7
:1043E000034405440293059B002B05DD21461A4634
:1043F000484601F09FFF0446029B002B05DD414625
:104400001A46484601F096FF80460C9B002B40F070
:104410007C82069B002B40F39582099B002B40F089
:10442000F581DDF81CB0069F5D4602E001F002FE5A
:10443000044641462046FFF7E3FC00F1300A05F848
:1044400001ABCBEB0503BB424FF00A024FF0000378
:1044500021464846EADB079B069A012AACBF9B1817
:1044600001331D464FF0000B21460122484601F062
:1044700061FF4146089001F0B5FF002840F30D832D
:1044800015F8012C07996B1E04E08B4200F078822E
:1044900013F8012D392A03F10105F6D001321A7003
:1044A0004146484601F0BCFD002E3FF408AFBBF189
:1044B000000F05D0B34503D05946484601F0B0FD82
:1044C0003146484601F0ACFDF9E601230C93E3E5E3
:1044D000DDF81080404602F06FFE02460B46304683
:1044E000394603F037F900287FF4C2AD08F1FF33F5
:1044F0000493BDE5059A049BD21A5B420A930023FC
:1045000005920B93DAE55B42059300230293CAE51B
:104510000A9F059D099E05E7C3F120080AFA08F0E5
:1045200073E50C90B8E500BF000024400023099318
:10453000049B219A13440D930133002B069340F3FF
:104540008382069C26460021172EC9F844100BD9F9
:10455000012204235B0003F11400B042114602F172
:104560000102F7D9C9F84410484601F033FD0E2C7A
:104570000790C9F840003FF6E0AD002D3FF4DDADF7
:1045800004995746D8460029CDE90E7840F3928227
:10459000914B01F00F020E1103EBC203F006D3E9B9
:1045A000004540F14C828D4B50465946D3E90823D3
:1045B00002F092FF06F00F0682468B464FF003088A
:1045C00086B1864FF10709D520462946D7E9002351
:1045D00002F058FE08F1010804460D46761007F176
:1045E0000807EFD122462B465046594602F074FF89
:1045F00006460F460C9B43B10022794B30463946A4
:1046000003F0B2F8002840F02083404602F0D4FDC9
:1046100032463B4602F036FE724B002202F080FC2E
:10462000069B0446A1F15075002B00F0DF81049B2E
:10463000DDF818801193099B002B00F09782664BE0
:10464000694903EBC80353E90223002002F044FF49
:1046500022462B4602F062FC82468B4630463946A3
:1046600003F0C0F8044602F0A7FD02460B463046B0
:10467000394602F053FC3034079DE4B206460F463B
:104680002C7002460B4650465946013503F08AF815
:1046900000284CD132463B460020514902F03EFCF6
:1046A00002460B465046594603F07CF8002840F07D
:1046B0000D83B8F1010F40F3B381079B98440DE0DF
:1046C0000020474902F02AFC52465B4603F04CF8B2
:1046D000002840F0FB82454500F0A2815046594633
:1046E0000022424B02F0CEFD0022404B82468B4618
:1046F0003046394602F0C6FD0F46064603F072F812
:10470000044602F059FD02460B463046394602F097
:1047100005FC3034E4B252465B4605F8014B0646D0
:104720000F4603F021F832463B460028C8D0119BC3
:104730000493C4E500230993219B002B40F3898156
:104740001E461C460D930693FDE601230993F3E7ED
:1047500008940A9A0899484601F09CFD044611E61F
:10476000069B002B3FF7FCAC40F0DA820022204B86
:10477000DDE9020102F086FD52465B4603F008F8CF
:10478000DDF818804646002800F0F280219B079D46
:10479000DB4304934146484601F042FC002E3FF4BF
:1047A0008EAD8DE6109A002A00F0418203F2334369
:1047B0000A9F059DABE51C20059B03440593029BC6
:1047C0000344054402930EE6209B012B40F38282B2
:1047D0000B9F0120F3E500BF807C4000487D400036
:1047E0000000F03F00001C400000E03F00002440BB
:1047F00000001440314600230A22484601F01AFC0A
:104800000D9B002B064640F397820693002D05DD95
:1048100031462A46484601F08DFD0646002F40F0FD
:104820007C810596069B079ADDF814B0013BD318EE
:1048300008930AF0010309931746C24651462046E1
:10484000FFF7DEFA31460546204601F0CBFD5A4619
:1048500002905146484601F0E5FDC268804605F1E8
:104860003003002A49D101462046069301F0BAFDE3
:1048700041460590484601F0D3FB059A069B2AB9AC
:10488000209919B90999002900F036820299002966
:10489000C0F2E48005D1209919B90999002900F0E6
:1048A000DD80002A00F34D81089A3B7007F1010872
:1048B0009742454600F05481214600230A2248468B
:1048C00001F0B8FB5E45044631464FF000034FF05F
:1048D0000A0248460BD001F0ADFB594606460023BC
:1048E0000A22484601F0A6FB47468346A6E701F0A8
:1048F000A1FB474606468346A0E701464846059386
:1049000001F08EFB0122059BC0E74146204601F0E5
:1049100069FD0028BFF67DAD2146049C0023013CC3
:104920000A224846049401F085FB099B0446002BAB
:104930007FF460AF0D9B002B40F3F681069370E58A
:10494000089C1FE5209B022B7FF767AD069B002B81
:1049500040F0798141460522484601F06BFB014653
:104960008046204601F03EFD002808947FF70EAFF8
:10497000049A07993123013204920B704D1C09E708
:10498000049A01320492079A3123137088E50123B7
:104990000993CDE5DDF8149091E4BAF1000F7FF4AE
:1049A00004ADCBF31303002B40F03F812BF0004705
:1049B0003F0D3F0537B1059B01330593029B013342
:1049C000029301270B9B0120002B3FF4F8ACEDE490
:1049D000404602F0F1FB32463B4602F053FC002217
:1049E000BF4B02F09DFA0446A1F15075304639469E
:1049F0000022BC4B02F092FA22462B4606460F4696
:104A000002F0D0FE8046002840F00581224605F1E4
:104A100000433046394602F0A7FE08B14646B5E6E7
:104A2000DDE90EABFFF789BB0798FFF7AEBA0A9B2B
:104A30000B9A0A97FB1A1A440B92002761E4DDE9EE
:104A40000EAB4FF00208BBE51C460021C9F844102C
:104A50008AE5012421940D940694F6E7002AD046B5
:104A6000CDF814B09A4611DD21460122484601F0E6
:104A700061FC4146044601F0B5FC002840F3498141
:104A8000BAF1390F00F0068105F1310AB34687F813
:104A900000A07D1C059E089402E504D11AF0010FC8
:104AA00001D0EDE4154615F8013C302B05F1FF323D
:104AB000F8D0F5E4049B5C42002C00F0BF808A4BE8
:104AC00004F00F0203EBC203D3E90023DDE90E017A
:104AD00002F0D8FB241106460F4600F02A81834DD0
:104AE0004FF00208E20709D530463946D5E90023E0
:104AF00002F0C8FB08F1010806460F46641005F1F4
:104B00000805EFD176E5079930220A70049A15F866
:104B1000014C01320492FFF7D0BB7168484601F0A6
:104B200059FA33699A1C0546920006F10C010C30C3
:104B300001F04EF929460122484601F0FBFB0590A1
:104B400070E6392BCDF814B0D04600F0A38003F105
:104B5000010AB34687F800A07D1C059E08949FE4D7
:104B60005A46D046B3469A4616467DE45E4908F159
:104B7000FF3A01EBCA0122462B46D1E9000102F0BF
:104B800081FBCDE912013946304602F02BFE044686
:104B900002F012FB02460B463046394602F0BEF9DF
:104BA000079A3034B8F1010F06460F46147002F12F
:104BB00001051ED0079B03EB080BA84600224C4BB7
:104BC0003046394602F05EFB0F46064602F00AFE0A
:104BD000044602F0F1FA303402460B4630463946BC
:104BE00002F09CF908F8014BC34506460F46E5D193
:104BF000554400223F4BDDE9120102F091F93246A3
:104C00003B4602F0B1FD00284CD0119B049315F8EF
:104C1000014CFFF746BB4FF000084646A8E6059B4F
:104C2000069A9D1A0023FFF772BB0027CAE6149B61
:104C30000A9F059DC3F13603FFF769BBDDE90E67E7
:104C40004FF00208D6E40894A0E5069B002B3FF441
:104C5000BFAE0D9B002B7FF7E3AE0022244B304606
:104C6000394602F00FFB06460F4608F1010002F03C
:104C7000A3FA32463B4602F005FB0022184B02F035
:104C80004FF9049ADDF83480013A0446A1F15075D9
:104C90001192D0E43922B3460894059E3A707D1CE7
:104CA000FFF7F0BBDDE912230020124902F036F9CC
:104CB00032463B4602F076FD08B9B1E6154615F8D6
:104CC000013C302B05F1FF32F8D030E5119B049305
:104CD000FFF7E7BABAF1000F7FF47AAD61E600BFE3
:104CE00000001C4000001440807C4000487D4000D3
:104CF000000024400000E03F392BCDF814B0D0462E
:104D0000DDF808B09A46C5D0BBF1000F3FF7BCAE46
:104D1000BCE67FF4BBAE1AF0010F3FF4B7AEAFE6CE
:104D20004FF00008464631E5209B022B21DC0D9B0D
:104D300004E64FF002085DE4209B022B19DC0D9B7A
:104D400063E50024C9F844402146484601F042F991
:104D50004FF0FF3306930D93012307902194C9F878
:104D600040000993FFF7E9B93FF43DABC0F13C00C7
:104D700022E50D9B0693E9E50125FFF7A8B900BFE1
:104D8000B1F90C309AB22DE9F0410D461107804679
:104D90003CD46A6843F40063002AAB8173DDAC6ADB
:104DA000002C4BD09BB203F48052002192B2D8F871
:104DB0000060C8F80010002A69D02A6D5F0705D589
:104DC00069682B6B521A0BB1EB6BD21A0023E9699D
:104DD0004046A047441C3CD0B5F90C302A692A60F3
:104DE00023F400630022AB81DB046A6049D4296BA1
:104DF000C8F8006011B305F14003994202D0404663
:104E000000F0C0F900202863BDE8F0812E69AEB142
:104E10002C682E6090070CBF6B690023A41BAB604D
:104E20000AE0234632466F6AE9694046B8470028DF
:104E3000A4EB0004064404DD002CF2DC0020BDE8F5
:104E4000F081AB8943F04003AB814FF0FF30BDE808
:104E5000F081D8F800201D2AF3D81A4BD34003F074
:104E6000010383F00104002BEBD0B5F90C30296964
:104E7000296023F40063D9046C60AB81B7D5002AA4
:104E8000B5D12865B3E7EA6B002A88DCD6E70123B1
:104E9000E9694046A047431C024602D0AB89AC6A90
:104EA0008CE7D8F80030002BF8D01D2B01D0162B42
:104EB00002D1C8F80060C1E7AB8943F04003AB8181
:104EC000BDE8F0810100402010B5044682B008B171
:104ED000836B53B1B1F90C0008B902B010BD204684
:104EE00002B0BDE81040FFF74BBF019100F080F821
:104EF0000199EFE7014900F0AFBB00BFED6D400045
:104F00002DE9F04F354B4568C3630024074600F593
:104F10003B7204230321C0F8E412C0F8E822C0F871
:104F2000E04283B02C606C60AC606C66EC812C61FC
:104F30006C61AC61AB81214605F15C000822FCF795
:104F400059FABE68DFF898B0DFF898A0DFF89890BB
:104F5000DFF89880C5F820B001230922C5F824A005
:104F6000C5F82890C5F82C80ED612146F381B28107
:104F700006F15C0034607460B4607466346174611E
:104F8000B46108220193FCF735FAFD68F66112203E
:104F90000222C6F820B0C6F824A0C6F82890C6F8A9
:104FA0002C802146A881EA812C606C60AC606C6624
:104FB0002C616C61AC6105F15C000822FCF71AFA07
:104FC000019BED61C5F820B0C5F824A0C5F8289074
:104FD000C5F82C80BB6303B0BDE8F08FF54E4000F0
:104FE000F5694000196A4000556A4000756A400042
:104FF000836B03B17047FFF783BF00BF704700BFEB
:10500000704700BF38B5074D074C2C1BA41005D0C6
:10501000013C55F8043D9847002CF9D1BDE83840D3
:1050200002F0B6BEA07D40009C7D40002DE9F04717
:1050300082B080468946144600F03CFB012833D0FC
:1050400004F15C034A4601A9404601F0EDFDB0F1D0
:10505000FF3F824621D088B39DF80460002508E018
:1050600023685A1C22601E700135554526D201ABBB
:105070005E5DA368013B002BA360F1DAA769BB4228
:1050800031462246404601DB0A2EE9D101F076FD89
:10509000431CE9D102B0BDE8F087A38943F0400387
:1050A000A38102B0BDE8F08709F1FF33FE2BC7D81A
:1050B0005FFA89F682468DF80460CFE7484602B071
:1050C000BDE8F087B2F90C3013F4005F0AD110B4D8
:1050D000546E43F4005344F400545466938110BC5E
:1050E000FFF7A4BFFFF7A2BFF8B5234F0C46064653
:1050F00000F06CFFBB685D6825F00305291B01F615
:10510000EF7121F47F6121F00F01A1F58054B4F516
:10511000805F07DB0021304601F05AFCBB682B445E
:10512000984204D0304600F053FF0020F8BD6142A1
:10513000304601F04DFC01300DD0104BBA681968B3
:105140002D1B45F001053046091B5560196000F024
:105150003FFF0120F8BD0021304601F039FCBA685C
:10516000831A0F2BDEDD064C0449246843F001034B
:10517000001B53600860D5E7A00440205C09402074
:10518000AC084020002945D02DE9F0410D4680466D
:1051900000F01CFF55F8047C6A4927F00103A5F1D3
:1051A0000804E2188E685068B24220F0030062D012
:1051B000FE0750600BD455F8087CE41B01F1080E83
:1051C000A56875453B446FD0E768EF60BD60151872
:1051D0006D68ED0742D543F001026260E350B3F51C
:1051E000007F18D2DB085A1C4D6851F83270A76056
:1051F00001209B1000FA03F301EBC2001D430838A5
:10520000E0604D6041F83240FC604046BDE8F0414E
:1052100000F0DEBE70475A0A042A53D89A0902F1F8
:1052200039077F0002F1380501EB870051F827208C
:105230004449083890424DD0516821F003018B4217
:1052400002D292689042F7D1D068E060A260846098
:10525000D4604046BDE8F04100F0BABE95683A4FD0
:10526000BD4203443FD0D068E86043F0010285604E
:105270006260E350B3E7FF07034407D455F8082CF6
:10528000A41A1344A068E268C26090602F4A1268B2
:1052900043F00100934260608C60B6D32C4B4046D3
:1052A0001968FFF721FFB0E711184968C90744D40E
:1052B0009168D268CA60034443F001009160606065
:1052C000E350A2E7142A17D802F15C077F0002F12D
:1052D0005B05A9E7AA104B68012505FA02F2134302
:1052E0004B600246B1E743F001024C610C61E5609E
:1052F000A5606260E35088E7542A06D81A0B02F1D1
:105300006F077F0002F16E058EE7B2F5AA7F06D81F
:10531000DA0B02F178077F0002F1770584E740F2AB
:105320005450824206D89A0C02F17D077F0002F1A8
:105330007C0579E7FE277E2576E743F0010262606F
:10534000E35062E7A0044020A8044020A8084020C1
:10535000580940209368002B76D02DE9F04F8B89B7
:1053600085B00C4619070190164629D522693AB333
:1053700003F002081FFA88F0356800282FD04FF09C
:105380000009B44FC846B246B84543464A4628BF0E
:105390003B460198B8F1000F50D0E169666AB0470A
:1053A000002871DDDAF808301B1A8144C0EB0808C8
:1053B000CAF80830002BE7D1002005B0BDE8F08F17
:1053C00021460198FEF7A8FC002840F03A81A38905
:1053D000356803F002081FFA88F00028CFD113F0D7
:1053E00001095BD14F4602961FB39A05D4F8088095
:1053F0002CD54745C246C0F0A48013F4906F40F00E
:10540000B18020685246494600F07CFDA0682368C0
:10541000C8EB00005344A06023603846029A9368AA
:105420001B1A81443F1A9360002BC5D0A389002F1B
:10543000DBD1D5F800906F680835D5E7D5F8009036
:10544000D5F8048008359FE700207047206823695D
:10545000984203D861698F4280F0B780B84528BF71
:10546000B8464246494600F04DFDA3682268C8EBA5
:1054700003034244A3602260002B49D121460198D6
:10548000FFF722FD002843D0B4F90C3043F040036D
:105490004FF0FF30A38105B0BDE8F08F8046029049
:1054A00082468146B9F1000F2AD0029B002B4CD0D6
:1054B000206823696269C845C34628BFCB46984225
:1054C0005F4604D9A36813449B4500F3908093453D
:1054D00020DB1346676AE16901985246B847071E08
:1054E000D2DDB8EB070823D0B368DB1BBA44C7EBA7
:1054F0000909B360002B3FF45FAFB9F1000FD4D1BD
:105500000023D5F800A0D5F8049002930835C9E728
:10551000404683E75A46514600F0F4FCA2682368EF
:10552000CBEB02025B44B8EB0708A2602360DBD13F
:1055300021460198FFF7C8FC0028A5D1CDF80880C6
:10554000D2E72068B846BA465CE74A460A21504688
:1055500000F0EEFB00286FD001300123CAEB0008F9
:105560000293A5E762692068216902EB4208C1EB5A
:10557000000A08EBD8780AF101004FEA68083844BD
:105580004045424684BF804642465B0542D51146AF
:10559000019800F015F98346002855D0524621693C
:1055A00000F016FCA38923F4906343F08003A381E9
:1055B000CAEB08030BEB0A00C4F81480C4F810B05F
:1055C0002060A360B846BA461CE76FF00043BB42B8
:1055D00028BF3B464A4693FBF1F30198666A01FBFC
:1055E00003F3E169B04700283FF718AF4CE71A46CC
:1055F0005146039300F086FC2268039B01981A44ED
:1056000022602146FFF760FC039B00287FF43CAF3B
:105610001F4666E7019800F0EBFF83460028C7D1DC
:10562000019D21692846FFF7ADFDB4F90C300C222D
:1056300023F080032A6029E7012309F1010802937E
:1056400036E74FF0FF30B8E6019A0C231360B4F947
:105650000C301BE700FCFF7F2DE9F84310F538778D
:105660001FD0884606464FF000097D68BC68013DA2
:1056700011D4A389012B05F1FF3508D9B4F90E30F7
:1056800001332146304602D0C04749EA00096B1C6D
:1056900004F16804EDD13F68002FE6D14846BDE82B
:1056A000F883B9464846BDE8F88300BF0048704714
:1056B0007C044020014B1868704700BF9C044020C8
:1056C000004870474404402070B50D46B1F90E10F3
:1056D000002990B014461E4614DB01AA01F0C8FB55
:1056E00000280FDB029A02F47042A2F50052B2FACF
:1056F00082F252094FF480634FF4006032602360FD
:1057000010B070BDA88900F0800082B20020306027
:105710001AB14023236010B070BD4FF4806310466F
:10572000236010B070BD00BF8A8992070B4606D572
:1057300001F1430201211A601A6159617047F0B505
:1057400083B001AB6A460C460546FFF7BDFF0099E2
:105750000646284600F034F8B4F90C30D0B1019A6E
:10576000124F0099EF6343F08003A3812060206112
:1057700061611AB93343A38103B0F0BD2846B4F97F
:105780000E1001F089FBB4F90C300028F2D043F080
:105790000103EFE79A05EFD404F1430243F002035B
:1057A0000121A381226022616161E5E7F54E40009D
:1057B000024B0146186800F003B800BF40044020C7
:1057C0002DE9F04F01F10B05162D83B0064640F28E
:1057D0009F8035F0070500F1BF80A94200F2BC8030
:1057E00000F0F4FBB5F5FC7FC0F09C826B0A00F082
:1057F000BA80042B00F28381A80900F1390E4FEA28
:105800004E033830C44F07EB8303A3F108015C68F3
:10581000A14207D1ACE0002A80F2AC80E468A1424A
:1058200000F0A680636823F003035A1B0F2AF2DD01
:10583000B9493C6901F1080E744500F0B381636811
:1058400023F003035A1B0F2A00F39981002AC1F8A1
:1058500014E0C1F810E080F29E80B3F5007F80F084
:105860006781DB0803F1010C01229B1002FA03F3AC
:105870004A6851F83C80C4F8088001EBCC091A430F
:10588000A9F10803E3604A6041F83C40C8F80C40C5
:10589000831001249C40944200F28A80144206D175
:1058A00020F003006400144200F10400FAD007EB7A
:1058B000C009CC468046DCF80C108C4507D173E15A
:1058C000002A80F28181C9688C4500F06D814B68A7
:1058D00023F003035A1B0F2AF2DD0C46D1F80CC04B
:1058E00054F8088F4B1945F001054D6042F0010155
:1058F000C8F80CC03046CCF808807B613B61C3F827
:105900000CE0C3F808E059609A5000F061FB1FE01A
:10591000102921D800F05AFB1025062302207E4FC3
:1059200007EB8303A3F108025C68944200F0458111
:105930006368E168A56823F00303234430465A688E
:10594000E96042F001028D605A6000F041FB0834CA
:10595000204603B0BDE8F08F00240C2320463360BE
:1059600003B0BDE8F08F80234FF0400E3F2049E7A1
:1059700070465DE72344E1685A68A56842F0010279
:10598000E96030468D605A6000F022FB0834204602
:1059900003B0BDE8F08F234430465A6842F001025C
:1059A0005A6000F015FB0834204603B0BDE8F08FC4
:1059B000BC68636823F00308A84504D3C5EB08035B
:1059C0000F2B00F38C80554BDFF860911A68D9F8E3
:1059D000003001332A4404EB080A00F0608102F52C
:1059E00080520F3222F47F6222F00F0211463046BD
:1059F000019200F0EDFFB0F1FF3F8346019A00F005
:105A00005881824500F2FC80454B1968DA45114403
:105A1000196000F05381D9F80000DFF810E101307F
:105A20001BBFCAEB0B0A5144CEF800B019601BF043
:105A3000070100F01781C1F10800C1F580518344CE
:105A400008315A44C2F30B02C2EB01094946304601
:105A5000019300F0BDFF431C019B00F03F81CBEBA5
:105A600000024A4442F001021968C7F808B04944EC
:105A7000BC42CBF804201960DFF8A49016D0B8F12E
:105A80000F0F40F2FD806268A8F10C0323F00703BA
:105A9000E01802F001024FF0050E1A430F2B62606E
:105AA000C0F804E0C0F808E000F21C811D4BBC689F
:105AB0001A68914288BF19601B4B1A68914262684C
:105AC00088BF196022F003029542A2EB050301D8BA
:105AD0000F2B04DC304600F07BFA002438E7621913
