:020000040040BA
:10000000F0294020E10E4000910F4000910F400088
:10001000910F4000910F4000910F40000000000040
:10002000000000000000000000000000910F4000F0
:10003000910F400000000000910F4000910F400020
:10004000910F4000910F4000CD164000910F4000ED
:10005000910F4000910F4000910F4000910F400020
:10006000910F4000000000005D0540007505400054
:100070008D054000910F4000ED154000910F4000AC
:10008000A5054000BD054000910F4000910F4000C4
:10009000910F4000910F4000910F4000910F4000E0
:1000A00089164000910F4000910F4000910F4000D1
:1000B000910F4000910F4000910F4000910F4000C0
:1000C000910F4000910F4000910F4000910F4000B0
:1000D00000000000910F400000000000910F400060
:1000E000910F4000910F4000910F4000910F400090
:1000F000910F4000910F4000910F4000910F400080
:10010000910F4000910F4000910F4000910F40006F
:10011000910F4000000000000000000000000000FF
:10012000910F4000910F4000910F4000910F40004F
:10013000910F400000000000910F4000910F40001F
:1001400010B5054C237833B9044B13B10448AFF311
:1001500000800123237010BD4408402000000000EF
:10016000402B4000084B10B51BB108490848AFF3BD
:1001700000800848036803B910BD074B002BFBD073
:10018000BDE81040184700BF0000000048084020AC
:10019000402B4000402B40000000000080B586B09E
:1001A00000AFF860B9607A6000237B61FB68002BC8
:1001B00012D04FF0FF3313E00B4B1B680B4A126851
:1001C000B96810469847BB680133BB607B6901334F
:1001D0007B617B68013B7B607B68002BECDC7B698F
:1001E00018461837BD4680BD140940201C09402020
:1001F00080B586B000AFF860B9607A6000237B619B
:10020000FB68012B1ED0FB68022B1BD0FB68032B65
:1002100018D04FF0FF3319E00E4B1A680E4B1868D8
:10022000BB68591CB9601B78194690470346002BE0
:1002300002DA4FF0FF3309E07B6901337B617B68B1
:10024000013B7B607B68002BE6D17B691846183741
:10025000BD4680BD180940201C09402080B485B0EF
:1002600000AFF860B9607A607B68002B03D0FB6850
:10027000BA685A6602E0FB68BA681A6600BF1437AB
:10028000BD465DF8047B704780B483B000AF7860F2
:1002900039607B683A681A6300BF0C37BD465DF869
:1002A000047B704780B483B000AF786039607B68AE
:1002B0003A685A6300BF0C37BD465DF8047B70474F
:1002C00080B487B000AFF860B9607A60FB687A6884
:1002D0005A64BB68B3F1C05F4AD0B3F1C05F08D8BD
:1002E000B3F1006F16D0B3F1805F2CD0002B69D032
:1002F00064E0B3F1205F65D0B3F1205F03D8B3F1C0
:10030000005F4AD05AE0B3F1405F5BD0B3F1605F69
:1003100058D053E0FB681B6F7B61FB681A6F7B68EA
:10032000D9437B690B401A40FB681A67FB685B6F17
:100330007B61FB685A6F7B68D9437B690B401A402D
:10034000FB685A673AE0FB681B6F7B617A687B69E0
:100350001A43FB681A67FB685B6F7B61FB685A6F27
:100360007B68D9437B690B401A40FB685A6725E0DC
:10037000FB681B6F7B61FB681A6F7B68D9437B69E5
:100380000B401A40FB681A67FB685B6F7B617A68F9
:100390007B691A43FB685A6710E0FB681B6F7B613F
:1003A0007A687B691A43FB681A67FB685B6F7B613D
:1003B0007A687B691A43FB685A6700BFFB687A68F2
:1003C0005A6000E000BF1C37BD465DF8047B7047F3
:1003D00080B584B000AFF860B9607A603B60B968FE
:1003E000F868124B9847BA69B968F868104B984793
:1003F0003B68002B03D0FB68BA681A6502E0FB6813
:10040000BA685A657B68002B03D0FB68BA681A6328
:1004100002E0FB68BA685A63FB68BA681A61FB6855
:10042000BA681A6000BF1037BD4680BD5D04400049
:100430005D02400080B483B000AF786039607B68B3
:100440009A6B3B681340002B01D1002300E001238D
:1004500018460C37BD465DF8047B704780B483B006
:1004600000AF786039607B683A685A6400BF0C3727
:10047000BD465DF8047B704780B483B000AF786000
:100480007B68DB6C18460C37BD465DF8047B704713
:1004900080B483B000AF78607B689B6C18460C37E3
:1004A000BD465DF8047B704780B584B000AF7860CE
:1004B00039607868264B9847F8607868254B9847EC
:1004C0000246FB681340FB60FB68002B3CD0002316
:1004D000BB6034E0204ABB681B0113441A683B68C8
:1004E0009A4226D11C4ABB681B01134404331A6884
:1004F000FB681340002B1CD0174ABB681B01134438
:100500000C331B681449BA6812010A441068124976
:10051000BA6812010A4404321268114698470E4A1A
:10052000BB681B01134404331B68DB43FA681340A8
:10053000FB60BB680133BB60BB68062B03D8FB685C
:10054000002BC7D100E000BF00BF1037BD4680BD03
:1005500079044000910440006008402080B500AF5D
:100560000A210248024B984700BF80BD000E0E4092
:10057000A904400080B500AF0B210248024B984708
:1005800000BF80BD00100E40A904400080B500AF40
:100590000C210248024B984700BF80BD00120E405C
:1005A000A904400080B500AF10210248024B9847D3
:1005B00000BF80BD00140E40A904400080B500AF0C
:1005C00011210248024B984700BF80BD00160E4023
:1005D000A904400080B483B000AF78607B683F2BF3
:1005E00001D901232FE07B681F2B13D8194B9A697F
:1005F00001217B6801FA03F31A4001217B6801FAAB
:1006000003F39A421ED0134A01217B6801FA03F3D7
:10061000136117E07B68203B7B600E4BD3F8082109
:1006200001217B6801FA03F31A4001217B6801FA7A
:1006300003F39A4206D0074A01217B6801FA03F3CB
:10064000C2F80031002318460C37BD465DF8047B24
:10065000704700BF00060E4080B483B000AF034671
:10066000FB71064A054B1B6923F00403136130BF7D
:1006700000BF0C37BD465DF8047B704700ED00E01D
:1006800080B483B000AF786039603B68002B06D03F
:100690007B685B6843F001027B685A6005E07B6819
:1006A0005B6823F001027B685A6000BF0C37BD46CF
:1006B0005DF8047B704700BF80B483B000AF786002
:1006C00039607B683A681A6200BF0C37BD465DF836
:1006D000047B704780B487B000AFF860B9607A607F
:1006E0003B6000237B61FB685B6803F00103002B28
:1006F00009D0BB680C2B06D9BB680C3BBB607B697F
:1007000043F480037B61BB68334AA2FB0323DB080D
:100710001805B968304BA3FB0123DA0813469B0088
:1007200013445B00CA1A130403437A6913437B61C1
:100730007B68294AA2FB0323DB0818037968264B50
:10074000A3FB0123DA0813469B0013445B00CA1A7B
:10075000130203437A6913437B613B681E4AA2FB81
:100760000323DB08180139681B4BA3FB0123DA08BC
:1007700013469B0013445B00CA1A40EA02037A69DD
:1007800013437B61FB681B6843F00102FB681A603E
:1007900000BFFB689B6903F00103002BF9D0FB68E5
:1007A0000122DA61FB687A699A60FB681B6823F0B2
:1007B0000102FB681A60FB68DB6943F00402FB6816
:1007C000DA61FB68DB6A03F0010318461C37BD469B
:1007D0005DF8047B704700BFCDCCCCCC80B487B033
:1007E00000AFF860B9607A603B6000237B61BB6852
:1007F000464AA2FB03239B091801BB68444AA2FB9B
:1008000003235909434BA3FB0123DA0813469B003A
:1008100013445B00CA1A40EA02037A6913437B61FE
:10082000BB683C4AA2FB0323D9083A4BA3FB012334
:10083000DA0813469B0013445B00CA1A1003B96818
:10084000344BA3FB0123DA0813469B0013445B00DF
:10085000CA1A130203437A6913437B617B682D4AEA
:10086000A2FB0323DB08180579682A4BA3FB0123AD
:10087000DA0813469B0013445B00CA1A13040343AF
:100880007A6913437B613B6A5B057A6913437B6139
:100890003B68204AA2FB0323DB08180739681D4B7D
:1008A000A3FB0123DA0813469B0013445B00CA1A1A
:1008B000130603437A6913437B61FB681B6843F0AB
:1008C0000202FB681A6000BFFB689B6903F001032A
:1008D000002BF9D0FB680122DA61FB687A69DA60E3
:1008E000FB681B6823F00202FB681A60FB68DB6987
:1008F00043F00402FB68DA61FB68DB6A03F0020381
:1009000018461C37BD465DF8047B7047D34D621016
:100910001F85EB51CDCCCCCC80B483B000AF7860D8
:100920007B689B6918460C37BD465DF8047B7047B1
:1009300080B483B000AF786039607B683A68DA6170
:1009400000BF0C37BD465DF8047B704780B487B0AC
:1009500000AFF860B9607A60FA68BB689B01134425
:100960007B617B6902221A607B694FF0FF329A62D9
:100970007B691B6A7B697A685A6000BF1C37BD4679
:100980005DF8047B704700BF80B483B000AF78602F
:1009900039607A683B689B01134405221A6000BFE6
:1009A0000C37BD465DF8047B704700BF80B485B04E
:1009B00000AFF860B9607A60FA68BB689B011344C5
:1009C0001C337A681A6000BF1437BD465DF8047B9B
:1009D000704700BF80B487B000AFF860B9607A603C
:1009E000FA68BB689B0113447B617B697A685A6231
:1009F00000BF1C37BD465DF8047B704780B485B0EE
:100A000000AF786039607A683B689B011344FB60F3
:100A1000FB681B6A18461437BD465DF8047B7047B7
:100A200080B48DB000AFF860B9607A603B6002239B
:100A30003B6108237B612023BB618023FB61BB6B8F
:100A4000DB0B3B620023FB621AE0FB6A9B0007F1B1
:100A50003002134453F8203CBA68B2FBF3F3BB6294
:100A6000BB6A1B0C7B62FA68BB6A9A4201D90023FD
:100A700023E0FA687B6A9A4206D2FB6A0133FB6282
:100A8000FB6A042BE1D900E000BFFB6A042B01D90B
:100A9000002312E07B68002B08D0FB6A9B0007F163
:100AA0003002134453F8202C7B681A603B68002BFB
:100AB00002D03B68FA6A1A60012318463437BD46F3
:100AC0005DF8047B704700BF80B485B000AF7860EC
:100AD00039600023FB607B68AC221A603B681A68AF
:100AE0003B685B68B2FBF3F31B09FB60FB68002B00
:100AF00003D0FB68B3F5803F01D301230AE07B6894
:100B0000FA681A623B689A687B685A607B68502270
:100B10001A60002318461437BD465DF8047B704701
:100B200080B483B000AF78607B685B6903F40073C6
:100B3000002B14BF01230023DBB218460C37BD463F
:100B40005DF8047B704700BF80B483B000AF78606D
:100B50000B46FB707B685B6903F00203002B01D13D
:100B6000012303E0FA787B68DA61002318460C372A
:100B7000BD465DF8047B704780B483B000AF7860F9
:100B800039607B685B6903F00103002B01D101230D
:100B900005E07B689B69DAB23B681A70002318464F
:100BA0000C37BD465DF8047B704700BF80B489B048
:100BB00000AFF860B9607A60BB681A017B689A423E
:100BC00002D81023FB6101E00823FB617B68DA0097
:100BD000FB69B96801FB03F35B081A44FB69B96858
:100BE00001FB03F3B2FBF3F3BB61BB69DB087B6181
:100BF000BB6903F007033B617B69002B03D07B6972
:100C0000B3F5803F01D301230FE0FB69082B05D129
:100C1000FB685B6843F40022FB685A603B691A0476
:100C20007B691A43FB681A62002318462437BD46C5
:100C30005DF8047B704700BF80B582B000AF78607C
:100C400078680D4B98477B6800225A607B680022C9
:100C50005A627B6800229A627868084B98477868E5
:100C6000074B98477868074B98477868064B984732
:100C700000BF0837BD4680BD390E40002D0D400035
:100C8000650D4000990D4000B50D400080B584B061
:100C900000AFF860B9607A60F8681A4B98471A4B51
:100CA00000221A60BB68002B09D0BB681B687A68F9
:100CB0001946F868154B98470346002B01D00123CD
:100CC0001BE0BB685A68BB689B681A43BB681B691A
:100CD0001A43BB68DB681A430B4B1B6813430A4A71
:100CE0001360094B1B68084A1360FB685A68064B7F
:100CF0001B681A43FB685A60002318461037BD462C
:100D000080BD00BF390C4000D0084020AD0B400032
:100D100080B483B000AF78607B6840221A6000BF67
:100D20000C37BD465DF8047B704700BF80B483B0CC
:100D300000AF78607B6888221A6000BF0C37BD4620
:100D40005DF8047B704700BF80B483B000AF78606B
:100D50007B6810221A6000BF0C37BD465DF8047B2B
:100D6000704700BF80B483B000AF78607B682422F6
:100D70001A6000BF0C37BD465DF8047B704700BFAA
:100D800080B483B000AF78607B685B6918460C372D
:100D9000BD465DF8047B704780B483B000AF7860D7
:100DA0007B684FF480721A6000BF0C37BD465DF857
:100DB000047B704780B483B000AF78607B684FF4E9
:100DC00000221A6000BF0C37BD465DF8047B7047F7
:100DD00080B483B000AF786039607B685B6903F0F2
:100DE0000203002B01D1012305E03B68C3F3080295
:100DF0007B68DA61002318460C37BD465DF8047B3A
:100E0000704700BF80B483B000AF786039607B6802
:100E10005B6903F00103002B01D1012306E07B682D
:100E20009B69C3F308023B681A60002318460C371D
:100E3000BD465DF8047B704780B483B000AF786036
:100E40007B68044AC3F8E42000BF0C37BD465DF858
:100E5000047B70470041535580B483B000AFEFF37B
:100E600010837B607B68002B0CBF01230023DBB267
:100E70003B6072B6BFF35F8F044B00221A703B6871
:100E800018460C37BD465DF8047B704700004020D3
:100E900080B483B000AF78607B68002B14BF01235F
:100EA0000023DBB218460C37BD465DF8047B704763
:100EB00080B582B000AF78607868074B98470346EA
:100EC000002B05D0054B01221A70BFF35F8F62B66D
:100ED00000BF0837BD4680BD910E40000000402095
:100EE00080B584B000AF1E4BFB601E4BBB60FA6840
:100EF000BB689A420CD007E0BB681A1DBA60FA685A
:100F0000111DF96012681A60BB68174A9342F3D347
:100F1000164BBB6004E0BB681A1DBA6000221A6061
:100F2000BB68134A9342F6D3124BFB60124AFB682C
:100F300023F07F039360114B98477860104A104B61
:100F40001B6843F470031360BFF34F8FBFF36F8FC1
:100F500078680C4B98470C4B98470C4B9847FEE72A
:100F6000402B40000000402044084020440840201E
:100F7000EC0940200000400000ED00E0590E400068
:100F800088ED00E0B10E4000591A4000E919400018
:100F900080B400AFFEE700BF80B485B000AF7860DA
:100FA000104BFB60104B1B68002B02D10E4B0F4AFD
:100FB0001A600D4B1B68BB60BA687B681A44FB68FB
:100FC0009A4202DD4FF0FF3306E0074B1A687B6858
:100FD0001344054A1360BB6818461437BD465DF8D4
:100FE000047B7047FCFF4520D4084020F02B4020B4
:100FF00080B483B000AF78604FF0FF3318460C37F1
:10100000BD465DF8047B704780B483B000AF786064
:1010100039603B684FF400525A60002318460C3781
:10102000BD465DF8047B704780B485B000AFF860C2
:10103000B9607A60002318461437BD465DF8047B1A
:10104000704700BF80B483B000AF0346FB7109490D
:1010500097F907305B09FA7902F01F02012000FAC4
:1010600002F241F8232000BF0C37BD465DF8047B37
:10107000704700BF00E100E080B483B000AF0346DA
:10108000FB71094997F907305B09FA7902F01F02F1
:10109000012000FA02F2203341F8232000BF0C3770
:1010A000BD465DF8047B704700E100E080B483B08A
:1010B00000AF0346FB71094997F907305B09FA79DC
:1010C00002F01F02012000FA02F2603341F82320EF
:1010D00000BF0C37BD465DF8047B704700E100E0BF
:1010E00080B483B000AF03463960FB7197F90730D5
:1010F000002B0BDA0D49FB7903F00F03043B3A6830
:10110000D2B25201D2B20B441A7609E0084997F9DB
:1011100007303A68D2B25201D2B20B4483F80023AE
:1011200000BF0C37BD465DF8047B704700ED00E062
:1011300000E100E080B483B000AF78607B68072BEB
:1011400025D801A252F823F0691140006F11400028
:10115000751140007B1140007F1140008311400059
:10116000871140008B1140004FF4FA4310E04FF418
:1011700000430DE04FF400430AE0084B08E0084B41
:1011800006E0084B04E0074B02E0064B00E00023BA
:1011900018460C37BD465DF8047B704700093D00DA
:1011A00000127A00001BB70080B500AF0620054B87
:1011B0009847024613469B0013449A00134418466E
:1011C00080BD00BF3511400080B500AF024B98478D
:1011D0000346184680BD00BFA911400080B500AF8E
:1011E000024B984703465B08184680BDA911400092
:1011F00080B582B000AF78607868034B984700BF35
:101200000837BD4680BD00BFD505400080B58CB015
:1012100000AF78603960494B984703467B623B6872
:101220001B68BB623B689B68FB623B681B68FB609A
:101230003B685B683B613B689B687B613B68DB6844
:10124000BB610023FB617B683D4A934208D10720C4
:101250003C4B984707F12403194678683A4B984766
:101260007B683A4A934208D10820364B984707F1E9
:10127000240319467868344B98477B68344A934274
:1012800008D12C202F4B984707F124031946786882
:101290002D4B98477B682F4A934208D12D20294B2C
:1012A000984707F1240319467868274B98477B68CD
:1012B000294A934211D10D20224B98471F4B984742
:1012C000024607F10C0319467868244B9847786862
:1012D000234B98477868234B98477B68224A934270
:1012E00011D10E20174B9847144B9847024607F12F
:1012F0000C0319467868194B98477868184B98473B
:101300007868184B98477B68184A934211D10F2090
:101310000C4B9847094B9847024607F10C031946B6
:1013200078680E4B984778680D4B984778680D4B56
:10133000984700BF3037BD4680BD00BFDD1140007B
:1013400000080E40F1114000C90A4000000A0E409A
:10135000001A0E40001C0E40004002408D0C400060
:10136000110D4000490D40000080024000C00240C5
:1013700080B582B000AF78600B46FB707B68364A60
:1013800093420AD100BFFB7819467868334B9847DF
:101390000346002BF7D101235AE07B68304A934281
:1013A0000AD100BFFB78194678682C4B9847034652
:1013B000002BF7D101234BE07B682A4A93420AD1E4
:1013C00000BFFB7819467868244B98470346002BEA
:1013D000F7D101233CE07B68234A93420AD100BF46
:1013E000FB78194678681D4B98470346002BF7D1C8
:1013F00001232DE07B681D4A93420AD100BFFB7890
:10140000194678681A4B98470346002BF7D10123F9
:101410001EE07B68174A93420AD100BFFB78194649
:101420007868134B98470346002BF7D101230FE050
:101430007B68114A93420AD100BFFB78194678684D
:101440000B4B98470346002BF7D1012300E0002304
:1014500018460837BD4680BD00080E40490B4000C5
:10146000000A0E40001A0E40001C0E4000400240D0
:10147000D10D40000080024000C0024080B584B021
:1014800000AF786039600023FB607B68344A934288
:1014900007D100BF39687868324B98470346002B64
:1014A000F8D17B68304A934207D100BF3968786829
:1014B0002C4B98470346002BF8D17B682B4A93426C
:1014C00007D100BF39687868264B98470346002B40
:1014D000F8D17B68264A934207D100BF3968786803
:1014E000204B98470346002BF8D17B68214A934252
:1014F0000DD100BF07F10C03194678681E4B9847C1
:101500000346002BF6D1FB68DAB23B681A707B68A1
:101510001A4A93420DD100BF07F10C0319467868AF
:10152000154B98470346002BF6D1FB68DAB23B68AF
:101530001A707B68124A93420DD100BF07F10C0369
:10154000194678680C4B98470346002BF6D1FB6888
:10155000DAB23B681A7000BF1037BD4680BD00BFCD
:1015600000080E40790B4000000A0E40001A0E40A1
:10157000001C0E4000400240050E4000008002406A
:1015800000C0024080B582B000AF786039600F4A79
:101590007B6813600E4B0F4A1A600F4B0F4A1A609C
:1015A000396878680E4B98470E4B1B689B68002182
:1015B00018460D4B98470B4B1B685B68002118467B
:1015C000094B984700BF0837BD4680BD1C09402025
:1015D0001809402071134000140940207D14400078
:1015E0000D12400030044020451B400090B583B0F0
:1015F00002AF1948194B9847034603F00103002B2B
:1016000026D01748174B98471748184B9847164B42
:101610001B786C2B05D11648124B9847154B0122AD
:101620001A70114B1B78642B0FD113480D4B984740
:10163000104B00221A7000230093002300224FF465
:1016400000610E480E4CA04702E00E4B01221A60CA
:1016500000BF0437BD4690BD00800240810D4000B0
:10166000BC2A400039194000200940208D19400053
:10167000F42A4000D8084020042B400000140E40FB
:10168000D1034000DC08402080B582B000AF0121CA
:1016900009480A4B984703467B607B68084B1B78D8
:1016A000DBB2002B04D04FF400610648064B98478C
:1016B00000BF0837BD4680BD00C00040FD094000A6
:1016C000D808402000140E401517400080B582B0A5
:1016D00000AF0D480D4B984778607B6803F004031A
:1016E000002B04D004210848094B984708E07B6888
:1016F00003F00203002B03D002210348044B984758
:1017000000BF0837BD4680BD60180E401909400073
:101710003109400080B582B000AF78603960396827
:101720007868094B98470346002B04D039687868DD
:10173000064B984703E039687868054B984700BF27
:101740000837BD4680BD00BF35044000A5024000FB
:101750008902400090B585B002AF78601020074B39
:1017600098477A680023009300234FF400610448EF
:10177000044CA04700BF0C37BD4690BDD5054000C6
:1017800000140E40D103400090B589B002AF7860DC
:101790001B4B9847786101233B611820194B9847F0
:1017A000786807F1080107F10C027B6900930B468A
:1017B0007969154CA047BB6843F480431A463969E0
:1017C0001248134B9847FB687A69B2FBF3F27B68C7
:1017D000B2FBF3F31A4639690C480E4B98471820B0
:1017E0000D4B98471022396908480C4B98473969C6
:1017F00006480B4B984700BF1C37BD4690BD00BF45
:10180000C9114000D5054000210A400000C0004039
:101810004D094000AD09400045104000D509400089
:101820008909400090B583B002AF0220144B98475D
:1018300000211448144B98470D2300931B230322C7
:1018400040F2E1710F48114CA04700230522092105
:101850000C480F4CA04702200E4B984702200E4B1D
:101860009847002102200D4B984702200C4B9847C7
:10187000022104480B4B984700BF0437BD4690BD7A
:10188000D505400060180E4081064000DD0740008D
:10189000D506400079104000AD104000E110400036
:1018A00045104000B906400080B586B000AF0B205F
:1018B0001A4B98470A20194B984710224FF00051B5
:1018C0001748184B98474FF400124FF00061164824
:1018D000144B9847154A154BD3F8143143F01003B5
:1018E000C2F814313B4600221A605A609A60DA60EE
:1018F0001A615A614FF4E1333B60C0237B604FF4BF
:101900000063BB600E20054B98473B4619460848CC
:10191000084B984700BF1837BD4680BDF111400005
:1019200000100E40C1024000000E0E400080084032
:10193000008002408515400080B584B000AF78601B
:101940000023FB6010E0FB685A1CFA607A681344BD
:101950001B7819460A480B4B984700BF08480A4BAA
:1019600098470346002BF9D07A68FB6813441B782C
:10197000002BE8D1FB6818461037BD4680BD00BF7C
:101980000080024071134000210B400080B584B0FC
:1019900000AF78600023FB607A68FB681344194647
:1019A0000F48104B984709E0FB680133FB607A68E9
:1019B000FB68134419460A480A4B98477A68FB6843
:1019C00013441B780A2BEFD1FB6801337A68134468
:1019D00000221A70FB6818461037BD4680BD00BF54
:1019E000008002407D14400080B500AF104B4FF4E2
:1019F00000425A6000200F4B98470F4B1B68184657
:101A00000E4B98470E4B98470E4B984702200E4BB3
:101A1000984704200C4B98470C4B1B68002BF5D0C3
:101A20000B480C4B9847094B00221A60EEE700BFA9
:101A300050180E4055174000040040208917400000
:101A400025184000A918400059064000DC08402035
:101A5000200940203919400070B50F4E0F4D761BFC
:101A6000B61018BF002405D0013455F8043B984740
:101A7000A642F9D10A4E0B4D761B01F04FF8B61075
:101A800018BF002406D0013455F8043B9847A642FD
:101A9000F9D170BD70BD00BF282B4000282B40003D
:101AA000302B4000282B400070B4840746D0541ED1
:101AB000002A41D0CDB2034602E0621EE4B31446D0
:101AC00003F8015B9A07F8D1032C2ED9CDB245EA71
:101AD00005250F2C45EA054519D903F110022646C4
:101AE000103E0F2E42F8105C42F80C5C42F8085C85
:101AF00042F8045C02F11002F2D8A4F1100222F0C4
:101B00000F0204F00F041032032C13440DD91E46AB
:101B10002246043A032A46F8045BFAD8221F22F030
:101B200003020432134404F003042CB1C9B21C4470
:101B300003F8011BA342FBD170BC70471446034657
:101B4000C2E700BF00290CBF022200224FF48063CD
:101B500000F000B82DE9F043514C256883B00446ED
:101B60000F4690461E4615B1AB6B002B79D0B8F1ED
:101B7000020F04D0B8F1010F7FD8002E7DDB214683
:101B8000284600F043F9216B41B104F1400399422A
:101B900002D0284600F03AFA00232363B4F90C304F
:101BA0000022A26162601A0654D423F44A6323F02F
:101BB0000303B8F1020FA38139D001AB6A46214675
:101BC000284600F035FBA3891843A08126B327B32C
:101BD000AB6B002B4DD0009BB4F90C0027609E42EC
:101BE0001CBF40F40060A081B8F1010F08BF40F0B5
:101BF000010083B208BFA08103F0080080B2276112
:101C0000666118B313F001002FD000207642A66160
:101C1000A06003B0BDE8F083009E304600F038FBC2
:101C2000074668B3A38943F08003A381D0E700206F
:101C300004F1430243F0020300250121A381A560C2
:101C400022602261616103B0BDE8F083A06003B04F
:101C5000BDE8F0832169284600F0D8F9B4F90C30CA
:101C6000A3E7284600F066F981E7A66003B0BDE867
:101C7000F083284600F05EF9ADE74FF0FF30E2E771
:101C8000DDF80090B14506D0484600F001FB07465C
:101C900008B14E46C6E7B4F90C304FF0FF30C7E745
:101CA00030044020024B13B1024800F005B87047E1
:101CB00000000000491F4000002301461A46184654
:101CC00000F016BEB1F90C309AB22DE9F0410D4684
:101CD000110780463CD46A6843F40063002AAB8154
:101CE00073DDAC6A002C4BD09BB203F48052002110
:101CF00092B2D8F80060C8F80010002A69D02A6DA6
:101D00005F0705D569682B6B521A0BB1EB6BD21AC2
:101D10000023E9694046A047441C3CD0B5F90C308B
:101D20002A692A6023F400630022AB81DB046A6025
:101D300049D4296BC8F8006011B305F140039942FA
:101D400002D0404600F062F900202863BDE8F0812F
:101D50002E69AEB12C682E6090070CBF6B69002312
:101D6000A41BAB600AE0234632466F6AE96940462D
:101D7000B8470028A4EB0004064404DD002CF2DC84
:101D80000020BDE8F081AB8943F04003AB814FF008
:101D9000FF30BDE8F081D8F800201D2AF3D81A4B97
:101DA000D34003F0010383F00104002BEBD0B5F91D
:101DB0000C302969296023F40063D9046C60AB817D
:101DC000B7D5002AB5D12865B3E7EA6B002A88DCCD
:101DD000D6E70123E9694046A047431C024602D0EA
:101DE000AB89AC6A8CE7D8F80030002BF8D01D2BFB
:101DF00001D0162B02D1C8F80060C1E7AB8943F0CF
:101E00004003AB81BDE8F0810100402010B50446DD
:101E100082B008B1836B53B1B1F90C0008B902B0BC
:101E200010BD204602B0BDE81040FFF74BBF019146
:101E300000F080F80199EFE7014900F0CFB900BF49
:101E4000B92940002DE9F04F354B4568C3630024A4
:101E5000074600F53B7204230321C0F8E412C0F8E2
:101E6000E822C0F8E04283B02C606C60AC606C6625
:101E7000EC812C616C61AC61AB81214605F15C00A9
:101E80000822FFF711FEBE68DFF898B0DFF898A0CF
:101E9000DFF89890DFF89880C5F820B00123092278
:101EA000C5F824A0C5F82890C5F82C80ED6121461E
:101EB000F381B28106F15C0034607460B4607466D2
:101EC00034617461B46108220193FFF7EDFDFD6890
:101ED000F66112200222C6F820B0C6F824A0C6F887
:101EE0002890C6F82C802146A881EA812C606C607D
:101EF000AC606C662C616C61AC6105F15C00082221
:101F0000FFF7D2FD019BED61C5F820B0C5F824A014
:101F1000C5F82890C5F82C80BB6303B0BDE8F08FEE
:101F2000391E40003D284000612840009D284000A7
:101F3000BD284000836B03B17047FFF783BF00BF2C
:101F4000704700BF704700BF38B5074D074C2C1BCA
:101F5000A41005D0013C55F8043D9847002CF9D158
:101F6000BDE8384000F0E4BD402B40003C2B400071
:101F7000F8B5234F0C46064600F04AFCBB685D6886
:101F800025F00305291B01F6EF7121F47F6121F093
:101F90000F01A1F58054B4F5805F07DB00213046C6
:101FA00000F03AFCBB682B44984204D0304600F065
:101FB00031FC0020F8BD6142304600F02DFC0130BC
:101FC0000DD0104BBA6819682D1B45F0010530463D
:101FD000091B5560196000F01DFC0120F8BD0021AF
:101FE000304600F019FCBA68831A0F2BDEDD064C70
:101FF0000449246843F00103001B53600860D5E7DF
:1020000034044020EC08402040084020002945D0FE
:102010002DE9F0410D46804600F0FAFB55F8047CAE
:102020006A4927F00103A5F10804E2188E68506898
:10203000B24220F0030062D0FE0750600BD455F886
:10204000087CE41B01F1080EA56875453B446FD080
:10205000E768EF60BD6015186D68ED0742D543F085
:1020600001026260E350B3F5007F18D2DB085A1C0E
:102070004D6851F83270A76001209B1000FA03F3FD
:1020800001EBC2001D430838E0604D6041F832406A
:10209000FC604046BDE8F04100F0BCBB70475A0A06
:1020A000042A53D89A0902F139077F0002F1380552
:1020B00001EB870051F827204449083890424DD061
:1020C000516821F003018B4202D292689042F7D10D
:1020D000D068E060A2608460D4604046BDE8F04112
:1020E00000F098BB95683A4FBD4203443FD0D0689A
:1020F000E86043F0010285606260E350B3E7FF07E8
:10210000034407D455F8082CA41A1344A068E268C5
:10211000C26090602F4A126843F0010093426060F1
:102120008C60B6D32C4B40461968FFF721FFB0E70F
:1021300011184968C90744D49168D268CA60034439
:1021400043F0010091606060E350A2E7142A17D8C1
:1021500002F15C077F0002F15B05A9E7AA104B685A
:10216000012505FA02F213434B600246B1E743F042
:1021700001024C610C61E560A5606260E35088E794
:10218000542A06D81A0B02F16F077F0002F16E0580
:102190008EE7B2F5AA7F06D8DA0B02F178077F0046
:1021A00002F1770584E740F25450824206D89A0C37
:1021B00002F17D077F0002F17C0579E7FE277E258D
:1021C00076E743F001026260E35062E734044020A6
:1021D0003C0440203C084020E80840202DE9F8431A
:1021E00010F538771FD0884606464FF000097D6805
:1021F000BC68013D11D4A389012B05F1FF3508D935
:10220000B4F90E3001332146304602D0C04749EAC6
:1022100000096B1C04F16804EDD13F68002FE6D182
:102220004846BDE8F883B9464846BDE8F88300BF94
:1022300070B50D46B1F90E10002990B014461E4637
:1022400014DB01AA00F0FAFB00280FDB029A02F46B
:102250007042A2F50052B2FA82F252094FF4806342
:102260004FF400603260236010B070BDA88900F0A8
:10227000800082B2002030601AB14023236010B089
:1022800070BD4FF480631046236010B070BD00BF76
:10229000024B0146186800F003B800BF300440202C
:1022A0002DE9F04F01F10B05162D83B0064640F2E3
:1022B0009F8035F0070500F1BF80A94200F2BC8085
:1022C00000F0A6FAB5F5FC7FC0F09C826B0A00F026
:1022D000BA80042B00F28381A80900F1390E4FEA7D
:1022E0004E033830C44F07EB8303A3F108015C6849
:1022F000A14207D1ACE0002A80F2AC80E468A142A0
:1023000000F0A680636823F003035A1B0F2AF2DD56
:10231000B9493C6901F1080E744500F0B381636866
:1023200023F003035A1B0F2A00F39981002AC1F8F6
:1023300014E0C1F810E080F29E80B3F5007F80F0D9
:102340006781DB0803F1010C01229B1002FA03F301
:102350004A6851F83C80C4F8088001EBCC091A4364
:10236000A9F10803E3604A6041F83C40C8F80C401A
:10237000831001249C40944200F28A80144206D1CA
:1023800020F003006400144200F10400FAD007EBCF
:10239000C009CC468046DCF80C108C4507D173E1AF
:1023A000002A80F28181C9688C4500F06D814B68FC
:1023B00023F003035A1B0F2AF2DD0C46D1F80CC0A0
:1023C00054F8088F4B1945F001054D6042F00101AA
:1023D000C8F80CC03046CCF808807B613B61C3F87C
:1023E0000CE0C3F808E059609A5000F013FA1FE0BF
:1023F000102921D800F00CFA1025062302207E4F68
:1024000007EB8303A3F108025C68944200F0458166
:102410006368E168A56823F00303234430465A68E3
:10242000E96042F001028D605A6000F0F3F908346F
:10243000204603B0BDE8F08F00240C232046336013
:1024400003B0BDE8F08F80234FF0400E3F2049E7F6
:1024500070465DE72344E1685A68A56842F00102CE
:10246000E96030468D605A6000F0D4F908342046A7
:1024700003B0BDE8F08F234430465A6842F00102B1
:102480005A6000F0C7F90834204603B0BDE8F08F69
:10249000BC68636823F00308A84504D3C5EB0803B0
:1024A0000F2B00F38C80554BDFF860911A68D9F838
:1024B000003001332A4404EB080A00F0608102F581
:1024C00080520F3222F47F6222F00F021146304612
:1024D000019200F0A1F9B0F1FF3F8346019A00F0AC
:1024E0005881824500F2FC80454B1968DA45114459
:1024F000196000F05381D9F80000DFF810E10130D5
:102500001BBFCAEB0B0A5144CEF800B019601BF098
:10251000070100F01781C1F10800C1F58051834423
:1025200008315A44C2F30B02C2EB01094946304656
:10253000019300F071F9431C019B00F03F81CBEB4C
:1025400000024A4442F001021968C7F808B0494441
:10255000BC42CBF804201960DFF8A49016D0B8F183
:102560000F0F40F2FD806268A8F10C0323F007030F
:10257000E01802F001024FF0050E1A430F2B6260C3
:10258000C0F804E0C0F808E000F21C811D4BBC68F4
:102590001A68914288BF19601B4B1A6891426268A1
:1025A00088BF196022F003029542A2EB050301D80F
:1025B0000F2B04DC304600F02DF9002438E76219B7
:1025C00043F0010345F0010565603046BA60536091
:1025D00000F020F90834204603B0BDE8F08F142B3A
:1025E00071D9542B00F2A480280B00F16F0E4FEA32
:1025F0004E036E3076E600BF34044020E8084020E9
:10260000EC084020E4084020E0084020400840203A
:102610005A0A042A5ED9142A00F2B38002F15C013E
:1026200049005B3207EB810C57F82110DFF8DC81A1
:10263000ACF1080C8C4500F088804A6822F0030257
:10264000934202D289688C45F7D1D1F80CC07A68E0
:10265000C4F80CC0A160CCF80840CC6088E66319CF
:1026600042F0010745F00105656030464B610B61A2
:10267000C3F80CE0C3F808E05F609A50083400F03B
:10268000C9F8D5E64A6873E608F1010818F0030FA7
:102690000CF1080C7FF47FAE30E0DC68A34208BF89
:1026A00002303FF435AEB3E60B440C465A68C968B5
:1026B00054F8085F42F001025A603046E9608D60CC
:1026C00000F0A8F8B4E603F15C0E03F15B004FEAFA
:1026D0004E0307E69A0902F1390149003832A1E7B1
:1026E000BC424A4B3FF400AF9C68626822F0030290
:1026F0005AE759F80839994540F0828010F0030FE5
:1027000000F1FF30F5D17B6823EA04037B606400AD
:102710009C423FF6BDAE002C3FF4BAAE1C42404690
:102720007FF435AE64001C4200F10400FAD02EE6BE
:10273000B3F5AA7F18D8E80B00F1780E4FEA4E03E4
:102740007730CFE54FF48051EBE60121D8F8043023
:10275000921001FA02F21A43C8F80420614677E7A2
:102760000123CBF8043025E740F25452934220D89D
:10277000A80C00F17D0E4FEA4E037C30B2E510321A
:10278000A4E6542A26D81A0B02F16F0149006E32D2
:1027900048E7BC68626822F0030205E7CAF30B0051
:1027A00000287FF4A8AE4244BB6842F001025A60A0
:1027B000ECE6FE234FF07F0E7E2093E501224FF0E2
:1027C0000009C1E604F108013046FFF71FFCD9F803
:1027D0000010DBE6B2F5AA7F05D8DA0B02F178012A
:1027E000490077321EE740F254518A4205D89A0CCC
:1027F00002F17D0149007C3214E7FE217E2211E7BF
:102800007B6884E7E808431C5B00F8E5340440205B
:10281000704700BF704700BF38B5074C002305461E
:1028200008462360FEF7B8FB431C00D038BD236880
:10283000002BFBD02B6038BDE809402010B50C46BA
:10284000B1F90E1000F024F9002803DB236D0344D6
:10285000236510BDA38923F48053A38110BD00BF5D
:102860002DE9F0411646B1F90C201F46D3050C4660
:10287000054607D500220223B1F90E1000F0F2F848
:10288000B4F90C20B4F90E1022F48052A2813B4618
:1028900032462846BDE8F04100F014B810B50C46A9
:1028A000B1F90E1000F0DEF8A389421C0EBF23F42C
:1028B000805343F480532065A38110BDB1F90E10FD
:1028C00000F068B870B50D46084C114606461A4629
:1028D000284600232360FDF78BFC431C00D070BD0D
:1028E0002368002BFBD0336070BD00BFE809402097
:1028F0002DE9F047254C2568D5F84841064688461D
:1029000092469946C4B360681F2817DC431C76B111
:1029100004EB80050122C5F888A0D4F88811824014
:102920001143022EC4F88811C5F808911ED0023058
:10293000636044F820800020BDE8F087144B03B3A7
:102940004FF4C870FFF7A4FC0446D0B1D5F8483165
:10295000002780E88800C5F8484138460123C4F8BC
:102960008871C4F88C71002EE1D0D1E7D4F88C11B5
:102970000A43C4F88C21DAE705F5A674C5F8484186
:10298000C1E74FF0FF30BDE8F08700BF182B4000D3
:102990009122400038B5074C0023054608462360C5
:1029A000FEF726FB431C00D038BD2368002BFBD06C
:1029B0002B6038BDE809402000293DD070B50546A0
:1029C0000C4608B1836B7BB3B4F90C300BB9002013
:1029D00070BD21462846FFF775F9E36A064633B114
:1029E000E169284698470028B8BF4FF0FF36A38911
:1029F0001B061CD4216B41B104F14003994202D063
:102A00002846FFF703FB00232363616C21B12846AE
:102A1000FFF7FCFA00236364FFF792FA0023A38117
:102A2000FFF790FA304670BDFFF784FACCE72169D2
:102A30002846FFF7EBFADDE70020704738B50B4674
:102A4000074C05461146184600232360FEF7DCFAC2
:102A5000431C00D038BD2368002BFBD02B6038BD51
:102A6000E809402070B50D46084C114606461A4646
:102A7000284600232360FEF7D7FA431C00D070BD20
:102A80002368002BFBD0336070BD00BFE8094020F5
:102A900070B50D46084C114606461A4628460023D6
:102AA0002360FDF77BFB431C00D070BD2368002B27
:102AB000FBD0336070BD00BFE80940204D656E75E6
:102AC0003A0A2A204C696761722070697363612039
:102AD0004C45443A206C200A2A204465736C69678F
:102AE0006172207069736361204C45443A20642010
:102AF0000A0000005069736361204C4544204F4E2A
:102B00000A0000005069736361204C4544204F4621
:102B1000460A00004300000008004020F8B500BF4E
:102B2000F8BC08BC9E467047A51C400065014000EB
:102B3000F8B500BFF8BC08BC9E4670474101400094
:102B4000010000000200000000000000F40240202C
:102B50005C034020C403402000000000000000008F
:102B60000000000000000000000000000000000065
:102B7000000000000000000000000000142B4000D6
:102B80000000000000000000000000000000000045
:102B90000000000000000000000000000000000035
:102BA0000000000000000000000000000000000025
:102BB0000000000000000000000000000000000015
:102BC0000000000000000000000000000000000005
:102BD00000000000000000000000000000000000F5
:102BE00000000000000000000000000000000000E5
:102BF00001000000000000000E33CDAB34126DE682
:102C0000ECDE05000B0000000000000000000000EA
:102C100000000000000000000000000000000000B4
:102C200000000000000000000000000000000000A4
:102C30000000000000000000000000000000000094
:102C40000000000000000000000000000000000084
:102F70000800402000000000000000003404402051
:102F8000340440203C0440203C04402044044020C1
:102F9000440440204C0440204C0440205404402071
:102FA000540440205C0440205C0440206404402021
:102FB000640440206C0440206C04402074044020D1
:102FC000740440207C0440207C0440208404402081
:102FD000840440208C0440208C0440209404402031
:102FE000940440209C0440209C044020A4044020E1
:102FF000A4044020AC044020AC044020B404402091
:10300000B4044020BC044020BC044020C404402040
:10301000C4044020CC044020CC044020D4044020F0
:10302000D4044020DC044020DC044020E4044020A0
:10303000E4044020EC044020EC044020F404402050
:10304000F4044020FC044020FC04402004054020FF
:10305000040540200C0540200C05402014054020AC
:10306000140540201C0540201C054020240540205C
:10307000240540202C0540202C054020340540200C
:10308000340540203C0540203C05402044054020BC
:10309000440540204C0540204C054020540540206C
:1030A000540540205C0540205C054020640540201C
:1030B000640540206C0540206C05402074054020CC
:1030C000740540207C0540207C054020840540207C
:1030D000840540208C0540208C054020940540202C
:1030E000940540209C0540209C054020A4054020DC
:1030F000A4054020AC054020AC054020B40540208C
:10310000B4054020BC054020BC054020C40540203B
:10311000C4054020CC054020CC054020D4054020EB
:10312000D4054020DC054020DC054020E40540209B
:10313000E4054020EC054020EC054020F40540204B
:10314000F4054020FC054020FC05402004064020FA
:10315000040640200C0640200C06402014064020A7
:10316000140640201C0640201C0640202406402057
:10317000240640202C0640202C0640203406402007
:10318000340640203C0640203C06402044064020B7
:10319000440640204C0640204C0640205406402067
:1031A000540640205C0640205C0640206406402017
:1031B000640640206C0640206C06402074064020C7
:1031C000740640207C0640207C0640208406402077
:1031D000840640208C0640208C0640209406402027
:1031E000940640209C0640209C064020A4064020D7
:1031F000A4064020AC064020AC064020B406402087
:10320000B4064020BC064020BC064020C406402036
:10321000C4064020CC064020CC064020D4064020E6
:10322000D4064020DC064020DC064020E406402096
:10323000E4064020EC064020EC064020F406402046
:10324000F4064020FC064020FC06402004074020F5
:10325000040740200C0740200C07402014074020A2
:10326000140740201C0740201C0740202407402052
:10327000240740202C0740202C0740203407402002
:10328000340740203C0740203C07402044074020B2
:10329000440740204C0740204C0740205407402062
:1032A000540740205C0740205C0740206407402012
:1032B000640740206C0740206C07402074074020C2
:1032C000740740207C0740207C0740208407402072
:1032D000840740208C0740208C0740209407402022
:1032E000940740209C0740209C074020A4074020D2
:1032F000A4074020AC074020AC074020B407402082
:10330000B4074020BC074020BC074020C407402031
:10331000C4074020CC074020CC074020D4074020E1
:10332000D4074020DC074020DC074020E407402091
:10333000E4074020EC074020EC074020F407402041
:10334000F4074020FC074020FC07402004084020F0
:10335000040840200C0840200C084020140840209D
:10336000140840201C0840201C084020240840204D
:10337000240840202C0840202C0840200000020097
:04338000FFFFFFFF4D
:0400000500400EE1C8
:00000001FF
